:100000000C94A0000C94CD000C94CD000C94CD0069
:100010000C94CD000C94CD000C94CD000C94CD002C
:100020000C94CD000C94CD000C94CD000C94CD001C
:100030000C94CD000C94CD000C94CD000C94CD000C
:100040000C94CD000C94CD000C94CD000C94CD00FC
:100050000C94CD000C94CD000C94CD000C94E109CF
:100060000C94CD000C94CD000C94CD000C94CD00DC
:100070000C94CD000C94CD000C94CD000C94CD00CC
:100080000C94CD000C94CD000C94CD000C94CD00BC
:100090000C94CD000C94CD000C94CD000C94CD00AC
:1000A0000C94CD000C94CD000C94CD000C94CD009C
:1000B0000C94CD000C94CD000C94CD000C94CD008C
:1000C0000C94CD000C94CD000C94CD000C94CD007C
:1000D0000C94CD000C94CD000C94CD000C94CD006C
:1000E0000C94CD0000000000240027002A0000002E
:1000F0000000250028002B0000000000230026003F
:10010000290004040404040404040202020202029A
:1001100003030303030301020408102040800102CB
:10012000040810200102040810200000000700024B
:100130000100000304060000000000000000580455
:1001400011241FBECFEFD1E2DEBFCDBF00E00CBF58
:1001500012E0A0E0B2E0E4E2F0E200E00BBF02C097
:1001600007900D92A232B107D9F71BBE12E0A2E2AE
:10017000B2E001C01D92AB3FB107E1F711E0C0E46E
:10018000D1E004C02297FE010E94D50FCE33D107E3
:10019000C9F70E94B2090C9410100C940000A0E062
:1001A000B0E0E5EDF0E00C94E10FEC01A880B9803F
:1001B000CA80DB80A114B104C104D10441F484E2FB
:1001C000A82E89EDB82E8BE5C82E87E0D82EC60163
:1001D000B5012DE133EF41E050E00E94960F27EA90
:1001E00031E440E050E00E94770F7B018C01C601B2
:1001F000B5012DE133EF41E050E00E94960FCA01B6
:10020000B9012CEE34EF4FEF5FEF0E94770F6E0DC8
:100210007F1D801F911F97FF04C061507040804078
:100220009048688379838A839B839B01AC015F77C5
:10023000B901CA01CDB7DEB7EAE00C94FD0F0E9408
:10024000CF00089580E092E00E94CF00089560936F
:1002500000027093010280930202909303020895BA
:10026000FC016F3F710509F010F4778366830895F0
:1002700021E0FC0126870895FC01738362830895C1
:10028000FA013296EE0FFF1FE80FF91F71836083AA
:10029000089508950F931F938C0180E292E0F80176
:1002A00091838083128613861486158616860E9493
:1002B000290AF8016787708B818B928B1F910F91B0
:1002C0000895CF93DF93EC0160E071E080E090E06F
:1002D0000E94B9097983688360E071E080E090E072
:1002E0000E94B9097B836A8360E071E080E090E05E
:1002F0000E94B909AB017D836C8328813981283C38
:1003000031055CF48A819B81883C91051CF4483C52
:100310005105D4F22F3131053CF08A819B814F97F2
:100320001CF04F31510584F6DF91CF910895CF92A3
:10033000DF92EF92FF920F931F93CF93DF93EC0125
:10034000CE80DF80C114D10409F470C06881798146
:10035000882777FD8095982F0E94880E7B018C015D
:10036000B601882777FD8095982F0E94880E9B0103
:10037000AC01C801B7010E94140F20E030E04FE744
:1003800053E40E94ED0D0E94550E9B01AC018C8D33
:10039000B9010E94F20A6A817B81882777FD8095E6
:1003A000982F0E94880E7B018C016E817F818827A7
:1003B00077FD8095982F0E94880E9B01AC01C801A3
:1003C000B7010E94140F20E030E04FE753E40E9491
:1003D000ED0D0E94550E9B01AC018E8DB9010E945E
:1003E000F20A6C817D81882777FD8095982F0E9485
:1003F000880E7B018C016E817F81882777FD809537
:10040000982F0E94880E9B01AC01C801B7010E9481
:10041000140F20E030E04FE753E40E94ED0D0E94FE
:10042000550E9B01AC0188A1B9010DC08C8D60E017
:1004300070E00E94F20A8E8D60E070E00E94F20A85
:1004400088A160E070E00E94F20ADF91CF911F91D5
:100450000F91FF90EF90DF90CF900895FC0186817F
:100460009781181619061CF4019797838683868155
:1004700097818A3191051CF0019797838683868145
:100480009781833391051CF001979783868386813A
:100490009781853691051CF0019797838683868125
:1004A0009781873991051CF0019797838683868110
:1004B0009781893C91051CF0019797838683CF0132
:1004C0000E9497010895EF92FF920F931F93CF938D
:1004D000DF93EC018E85882309F450C0EB88FC88FB
:1004E0000027F7FC0095102F8F859889A989BA8974
:1004F000E80EF91E0A1F1B1F0E94290AE616F706BE
:1005000008071907D8F58A819B810E942E028A85E7
:100510009B85AC85BD850196A11DB11D8A879B87F2
:10052000AC87BD870E94290A6F87788B898B9A8B4D
:100530008D899E89AA2797FDA095BA2F2A853B858C
:100540004C855D8582179307A407B507B8F4EC8145
:10055000FD81309711F081E08687EE81FF81309731
:1005600011F081E08687E885F985309711F081E008
:1005700086871E861A861B861C861D86DF91CF9174
:100580001F910F91FF90EF900895FC018681978154
:100590008F3F91051CF4019697838683868197810E
:1005A0008A31910534F08F3F91051CF401969783B1
:1005B0008683868197818333910534F08F3F91053F
:1005C0001CF40196978386838681978185369105F1
:1005D00034F08F3F91051CF40196978386838681C2
:1005E00097818739910534F08F3F91051CF401966E
:1005F0009783868386819781893C910534F08F3F6C
:1006000091051CF4019697838683CF010E94970180
:100610000895EF92FF920F931F93CF93DF93EC0116
:100620008E85882309F450C0EB88FC880027F7FCEE
:100630000095102F8F859889A989BA89E80EF91E2F
:100640000A1F1B1F0E94290AE616F706080719074A
:10065000D8F58A819B810E94C5028A859B85AC85DD
:10066000BD850196A11DB11D8A879B87AC87BD877B
:100670000E94290A6F87788B898B9A8B8D899E8936
:10068000AA2797FDA095BA2F2A853B854C855D85C5
:1006900082179307A407B507B8F4EC81FD81309762
:1006A00011F081E08687EE81FF81309711F081E0C3
:1006B0008687E885F985309711F081E086871E8668
:1006C0001A861B861C861D86DF91CF911F910F9184
:1006D000FF90EF900895FC01118210821382128224
:1006E000158214821782168211861086138612864E
:1006F0001586148617861686758F648F578F468FDA
:1007000031A320A317A616A60E9497010895CF93A0
:10071000DF93EC018EA59FA5892B31F0CE010E94BD
:1007200097011FA61EA613C08C8D60E070E00E948A
:10073000F20A8E8D60E070E00E94F20A88A160E00B
:1007400070E00E94F20A81E090E09FA78EA7DF91FF
:10075000CF910895EF92FF920F931F93CF93DF9362
:10076000EC018E85882309F450C0EB88FC880027B3
:10077000F7FC0095102F8F859889A989BA89E80E12
:10078000F91E0A1F1B1F0E94290AE616F706080712
:100790001907D8F58A819B810E9487038A859B85EA
:1007A000AC85BD850196A11DB11D8A879B87AC874D
:1007B000BD870E94290A6F87788B898B9A8B8D89D8
:1007C0009E89AA2797FDA095BA2F2A853B854C853F
:1007D0005D8582179307A407B507B8F4EC81FD8106
:1007E000309711F081E08687EE81FF81309711F01C
:1007F00081E08687E885F985309711F081E086876A
:100800001E861A861B861C861D86DF91CF911F913E
:100810000F91FF90EF900895CF93DF93C0E0D0E069
:10082000E091E602F091E702EC0FFD1FA081B1819B
:10083000ED91FC9111970190F081E02DCD0119957A
:10084000E091E802F091E902EC0FFD1FA081B18177
:10085000ED91FC9111970190F081E02DCD0119955A
:10086000E091EA02F091EB02EC0FFD1FA081B18153
:10087000ED91FC9111970190F081E02DCD0119953A
:10088000E091EC02F091ED02EC0FFD1FA081B1812F
:10089000ED91FC9111970190F081E02DCD0119951A
:1008A0002296CC30D10509F0BBCFDF91CF910895CE
:1008B00082E292E062E070E043E050E024E030E069
:1008C0000E946B0382E592E065E070E046E050E054
:1008D00027E030E00E946B0382E892E068E070E07D
:1008E00049E050E02AE030E00E946B0382EB92E0A6
:1008F0006BE070E04CE050E02DE030E00E946B03D4
:100900008CE090E00E94DB099093E7028093E6027E
:100910008CE090E00E94DB099093E9028093E8026A
:100920008CE090E00E94DB099093EB028093EA0256
:100930008CE090E00E94DB099093ED028093EC0242
:100940000895AF92BF92CF92DF92EF92FF920F93F2
:100950001F93CF93DF936C01EB018C01EE24FF24F6
:100960005B010894A108B1080EC0F801628173818F
:100970008081918140E050E00E9440010894E11C98
:10098000F11C0E5F1F4FEA14FB047CF32197CC0F80
:10099000DD1FCC0DDD1DF60160817181888199819B
:1009A00040E050E00E944001DF91CF911F910F91F4
:1009B000FF90EF90DF90CF90BF90AF900895CF92CF
:1009C000DF92EF92FF920F931F93CF93DF936B0110
:1009D0007A018C01C0E0D0E008C0F80181919191CA
:1009E0008F01B6010E943C012196CE15DF05ACF3C4
:1009F000DF91CF911F910F91FF90EF90DF90CF90FB
:100A000008952F923F924F925F926F927F928F92B2
:100A10009F92AF92BF92CF92DF92EF92FF920F938D
:100A20001F9342EB242E42E0342EC1010E9461014B
:100A3000C1016FEF70E00E9430018090EC02909055
:100A4000ED026AEF70E080E090E00E94B9096B016E
:100A50007C0187E190E00E94DE09B92E082F192F52
:100A60000E944A013AE1432E32E0532EF8015182AE
:100A70004082D48AC38A23E0622E712C768A658AEA
:100A8000F4010083B182E090EC02F090ED026AEF95
:100A900070E080E090E00E94B9095B016C0187E1A1
:100AA00090E00E94DE09992E082F192F0E944A011A
:100AB000F80151824082B48AA38A768A658AF70156
:100AC000028382E090E0E80EF91EF7019182E09047
:100AD000EC02F090ED026AEF70E080E090E00E949E
:100AE000B9095B016C0187E190E00E94DE09992E53
:100AF000082F192F0E944A01F80151824082B48ABE
:100B0000A38A768A658AF701048384E090E0E80E80
:100B1000F91EF7019182E090EC02F090ED026AEF8D
:100B200070E080E090E00E94B9095B016C0187E110
:100B300090E00E94DE09992E082F192F0E944A0189
:100B4000F80151824082B48AA38A768A658AF701C5
:100B5000068386E090E0E80EF91EF7019182E090AE
:100B6000EC02F090ED0287E190E00E94DE09D92EC0
:100B7000082F192FA090E202B090E3020E944A01D0
:100B80008EE092E0F8019183808392E3892E912C8C
:100B9000948A838AB68AA58AF701008788E090E064
:100BA000E80EF91EF701D182E090EC02F090ED0220
:100BB00087E190E00E94DE09D92E082F192FA0901E
:100BC000E202B090E3020E944A0184E192E0F8015F
:100BD00091838083948A838AB68AA58AF7010287E3
:100BE0008AE090E0E80EF91EF701D1828091EC02D4
:100BF0009091ED02B10146E050E00E94DF04809147
:100C0000EC029091ED0266E070E00E94A104E09198
:100C1000EC02F091ED02808191810E9438011F91D8
:100C20000F91FF90EF90DF90CF90BF90AF909F908B
:100C30008F907F906F905F904F903F902F9008958E
:100C40002F923F924F925F926F927F928F929F92DC
:100C5000AF92BF92CF92DF92EF92FF920F931F93CA
:100C6000E2E82E2EE2E03E2EC1010E946101C101A8
:100C70006FEF70E00E9430018090EA029090EB02EA
:100C80006AEF70E080E090E00E94B9096B017C019E
:100C900087E190E00E94DE09B92E082F192F0E94EB
:100CA0004A017AE1472E72E0572EF80151824082C4
:100CB000D48AC38A63E0662E712C768A658AF40131
:100CC0000083B182E090EA02F090EB026AEF70E0FC
:100CD00080E090E00E94B9095B016C0187E190E03F
:100CE0000E94DE09992E082F192F0E944A01F8014F
:100CF00051824082B48AA38A768A658AF701028388
:100D000082E090E0E80EF91EF7019182E090EA029D
:100D1000F090EB026AEF70E080E090E00E94B90989
:100D20005B016C0187E190E00E94DE09992E082F9B
:100D3000192F0E944A01F80151824082B48AA38A85
:100D4000768A658AF701048384E090E0E80EF91E54
:100D5000F7019182E090EA02F090EB026AEF70E016
:100D600080E090E00E94B9095B016C0187E190E0AE
:100D70000E94DE09992E082F192F0E944A01F801BE
:100D800051824082B48AA38A768A658AF7010683F3
:100D900086E090E0E80EF91EF7019182E090EA0209
:100DA000F090EB0287E190E00E94DE09D92E082F37
:100DB000192FA090E202B090E3020E944A018EE057
:100DC00092E0F8019183808352E3852E912C948ADE
:100DD000838AB68AA58AF701008788E090E0E80E4A
:100DE000F91EF701D182E090EA02F090EB0287E170
:100DF00090E00E94DE09D92E082F192FA090E20260
:100E0000B090E3020E944A0184E192E0F8019183EC
:100E10008083948A838AB68AA58AF70102878AE04A
:100E200090E0E80EF91EF701D1828091EA029091DC
:100E3000EB02B10146E050E00E94DF048091EA023B
:100E40009091EB0266E070E00E94A104E091EA025A
:100E5000F091EB02808191810E9438011F910F91E6
:100E6000FF90EF90DF90CF90BF90AF909F908F90CA
:100E70007F906F905F904F903F902F9008952F92AA
:100E80003F924F925F926F927F928F929F92AF921A
:100E9000BF92CF92DF92EF92FF920F931F9392E552
:100EA000292E92E0392EC1010E946101C1016FEF2C
:100EB00070E00E9430018090E8029090E9026AEFB1
:100EC00070E080E090E00E94B9096B017C0187E14D
:100ED00090E00E94DE09B92E082F192F0E944A01C6
:100EE0008AE1482E82E0582EF80151824082D48A4D
:100EF000C38AB3E06B2E712C768A658AF401008375
:100F0000B182E090E802F090E9026AEF70E080E0E0
:100F100090E00E94B9095B016C0187E190E00E94BA
:100F2000DE09992E082F192F0E944A01F8015182DB
:100F30004082B48AA38A768A658AF701028382E0B6
:100F400090E0E80EF91EF7019182E090E802F0903F
:100F5000E9026AEF70E080E090E00E94B9095B016D
:100F60006C0187E190E00E94DE09992E082F192F6D
:100F70000E944A01F80151824082B48AA38A768A8B
:100F8000658AF701048384E090E0E80EF91EF7011A
:100F90009182E090E802F090E9026AEF70E080E070
:100FA00090E00E94B9095B016C0187E190E00E942A
:100FB000DE09992E082F192F0E944A01F80151824B
:100FC0004082B48AA38A768A658AF701068386E01E
:100FD00090E0E80EF91EF7019182E090E802F090AF
:100FE000E90287E190E00E94DE09D92E082F192F2F
:100FF000A090E202B090E3020E944A018EE092E0EB
:10100000F80191838083A2E38A2E912C948A838AAB
:10101000B68AA58AF701008788E090E0E80EF91EFD
:10102000F701D182E090E802F090E90287E190E0D8
:101030000E94DE09D92E082F192FA090E202B0904D
:10104000E3020E944A0184E192E0F80191838083E7
:10105000948A838AB68AA58AF70102878AE090E09B
:10106000E80EF91EF701D1828091E8029091E90221
:10107000B10146E050E00E94DF048091E8029091C7
:10108000E90266E070E00E94A104E091E802F091BC
:10109000E902808191810E9438011F910F91FF9098
:1010A000EF90DF90CF90BF90AF909F908F907F9008
:1010B0006F905F904F903F902F9008952F923F92A6
:1010C0004F925F926F927F928F929F92AF92BF9258
:1010D000CF92DF92EF92FF920F931F9352E2252E51
:1010E00052E0352EC1010E946101C1016FEF70E035
:1010F0000E9430018090E6029090E7026AEF70E073
:1011000080E090E00E94B9096B017C0187E190E0EA
:101110000E94DE09B92E082F192F0E944A014AE1C8
:10112000442E42E0542EF80151824082D48AC38A70
:1011300033E0632E712C768A658AF4010083B182D4
:10114000E090E602F090E7026AEF70E080E090E065
:101150000E94B9095B016C0187E190E00E94DE0901
:10116000992E082F192F0E944A01F80151824082BE
:10117000B48AA38A768A658AF701028382E090E0C6
:10118000E80EF91EF7019182E090E602F090E70286
:101190006AEF70E080E090E00E94B9095B016C01A9
:1011A00087E190E00E94DE09992E082F192F0E94F6
:1011B0004A01F80151824082B48AA38A768A658AFC
:1011C000F701048384E090E0E80EF91EF7019182B4
:1011D000E090E602F090E7026AEF70E080E090E0D5
:1011E0000E94B9095B016C0187E190E00E94DE0971
:1011F000992E082F192F0E944A01F801518240822E
:10120000B48AA38A768A658AF701068386E090E02D
:10121000E80EF91EF7019182E090E602F090E702F5
:1012200087E190E00E94DE09D92E082F192FA090A7
:10123000E202B090E3020E944A018EE092E0F801DF
:101240009183808322E3822E912C948A838AB68AAA
:10125000A58AF701008788E090E0E80EF91EF70103
:10126000D182E090E602F090E70287E190E00E94F0
:10127000DE09D92E082F192FA090E202B090E302C8
:101280000E944A0184E192E0F80191838083948A6C
:10129000838AB68AA58AF70102878AE090E0E80E81
:1012A000F91EF701D1828091E6029091E702B10127
:1012B00046E050E00E94DF048091E6029091E70250
:1012C00066E070E00E94A104E091E602F091E7027E
:1012D000808191810E9438011F910F91FF90EF90C2
:1012E000DF90CF90BF90AF909F908F907F906F9046
:1012F0005F904F903F902F90089586E590E09093F7
:10130000E3028093E2028FEF90E09093E5028093F6
:10131000E40264EF71E080E090E00E94B9090E946D
:10132000370A0E945E0864EF71E080E090E00E945E
:10133000B9090E94370A0E943F0764EF71E080E01C
:1013400090E00E94B9090E94370A0E94200664EFCB
:1013500071E080E090E00E94B9090E94370A0E9483
:10136000010508950E94900A0E947D090E940C04C4
:10137000FDCFEF92FF920F931F937B018C016115BC
:1013800071058105910529F420E030E040E050E04E
:101390000BC00E942201A80197010E94960FAC0188
:1013A000CB01DA019C01AD01B901CA011F910F9176
:1013B000FF90EF9008950E94B80C08950E94B80C19
:1013C00008951F920F920FB60F9211242F933F93FF
:1013D0008F939F93AF93BF938091F2029091F3020A
:1013E000A091F402B091F5023091F6020196A11D90
:1013F000B11D232F2D5F2D3720F02D570196A11DF4
:10140000B11D2093F6028093F2029093F302A09311
:10141000F402B093F5028091EE029091EF02A09158
:10142000F002B091F1020196A11DB11D8093EE0270
:101430009093EF02A093F002B093F102BF91AF91AD
:101440009F918F913F912F910F900FBE0F901F9002
:1014500018958FB7F8942091F2023091F3024091E1
:10146000F4025091F5028FBFB901CA0108959B01A2
:10147000AC017FB7F8948091EE029091EF02A091B9
:10148000F002B091F10266B5A89B05C06F3F19F05C
:101490000196A11DB11D7FBFBA2FA92F982F8827B4
:1014A000860F911DA11DB11D62E0880F991FAA1F13
:1014B000BB1F6A95D1F7BC012DC0FFB7F89480918E
:1014C000EE029091EF02A091F002B091F102E6B528
:1014D000A89B05C0EF3F19F00196A11DB11DFFBFEC
:1014E000BA2FA92F982F88278E0F911DA11DB11DEE
:1014F000E2E0880F991FAA1FBB1FEA95D1F7861B50
:10150000970B885E9340C8F22150304040405040D5
:1015100068517C4F211531054105510571F608953B
:10152000789484B5826084BD84B5816084BD85B5BE
:10153000826085BD85B5816085BDEEE6F0E0808185
:1015400081608083E1E8F0E01082808182608083A6
:10155000808181608083E0E8F0E080818160808329
:10156000E1EBF0E0808184608083E0EBF0E080815B
:1015700081608083E1E9F0E0808182608083808106
:1015800081608083E0E9F0E0808181608083E1EA2E
:10159000F0E0808182608083808181608083E0EAE6
:1015A000F0E0808181608083E1E2F1E0808182600F
:1015B0008083808181608083E0E2F1E080818160CE
:1015C0008083EAE7F0E080818460808380818260AC
:1015D0008083808181608083808180688083109295
:1015E000C10008951F93CF93DF93182FEB0161E0A3
:1015F0000E94D20B209709F4CAC0CF3FD10509F44D
:10160000C9C0E12FF0E0E65DFE4F8491893009F416
:1016100066C08A30B0F48430F1F1853040F4823015
:1016200059F1833070F5813009F0AEC020C08730A9
:1016300009F443C0883008F048C0863009F0A4C0DF
:1016400034C08D3009F478C08E3038F48B3009F412
:101650005AC08C3008F066C04CC0803109F480C09C
:10166000813109F487C08F3009F08EC06FC084B516
:10167000806884BDC7BD92C084B5806284BDC8BD8A
:101680008DC080918000806880938000D093890015
:10169000C093880083C08091800080628093800026
:1016A000D0938B00C0938A0079C08091B00080688D
:1016B0008093B000C093B30071C08091B00080628D
:1016C0008093B000C093B40069C08091900080689E
:1016D00080939000D0939900C09398005FC0809150
:1016E0009000806280939000D0939B00C0939A00FA
:1016F00055C080919000886080939000D0939D00A9
:10170000C0939C004BC08091A00080688093A00093
:101710008091A0008F7B8093A000D093A900C093FC
:10172000A8003CC08091A00080628093A000D0936C
:10173000AB00C093AA0032C08091A0008860809363
:10174000A000D093AD00C093AC0028C080912001D0
:10175000806880932001D0932901C09328011EC086
:1017600080912001806280932001D0932B01C0934F
:101770002A0114C080912001886080932001D093B9
:101780002D01C0932C010AC0C038D1051CF4812F53
:1017900060E002C0812F61E00E94850CDF91CF9153
:1017A0001F910895CF93DF93482F50E0CA018A5EBE
:1017B0009E4FFC0134914E5F5E4FFA018491882365
:1017C00069F190E0880F991FFC01EC51FF4FA59142
:1017D000B491FC01E251FF4FC591D491662351F4BD
:1017E0002FB7F8948C91932F909589238C938881AF
:1017F00089230BC0623061F42FB7F8948C91932F3A
:10180000909589238C938881832B88832FBF06C072
:101810009FB7F8948C91832B8C939FBFDF91CF91CE
:101820000895893009F449C08A30A0F4843051F118
:10183000853040F4823079F1833000F5813009F051
:1018400063C026C0873079F1883098F5863009F07A
:101850005BC025C08D3009F442C08E3028F48B3037
:10186000B1F18C30C0F52DC0803109F442C0813116
:1018700009F445C08F3009F047C037C0809180001F
:101880008F7703C0809180008F7D809380000895C2
:1018900084B58F7702C084B58F7D84BD0895809113
:1018A000B0008F7703C08091B0008F7D8093B0002F
:1018B0000895809190008F7707C0809190008F7D70
:1018C00003C080919000877F80939000089580915D
:1018D000A0008F7707C08091A0008F7D03C080910A
:1018E000A000877F8093A0000895809120018F77CA
:1018F00003C0809120018F7D809320010895809105
:101900002001877F809320010895FF920F931F93FA
:10191000F62E482F50E0CA01865D9E4FFC012491AF
:10192000CA018A5E9E4FFC0114914E5F5E4FFA0120
:1019300004910023C9F0222319F0822F0E94110C78
:10194000E02FF0E0EE0FFF1FE251FF4FA591B491A1
:101950009FB7F894FF2021F48C911095812302C049
:101960008C91812B8C939FBF1F910F91FF900895B5
:101970000F931F93CF93DF93BC018230910510F436
:1019800062E070E0E091F902F091FA02A0E0B0E0CC
:1019900040E050E024C08081918186179707D0F005
:1019A0008617970771F482819381109729F0139617
:1019B0009C938E9312972CC09093FA028093F90215
:1019C00027C04115510519F08417950718F4EF0148
:1019D0008D01AC01DF01828193819C01F901309777
:1019E000D1F641155105F9F0CA01861B970B8430D9
:1019F000910580F48A819B810115110521F0F80180
:101A00009383828304C09093FA028093F902FE01CB
:101A1000329645C0FE01E80FF91F6193719302975A
:101A2000998388833CC08091F7029091F802892BBA
:101A300041F480910602909107029093F8028093FE
:101A4000F70240910802509109024115510541F4F5
:101A50004DB75EB78091040290910502481B590B67
:101A60002091F7023091F80224173507B0F4CA012B
:101A7000821B930B8617970780F0AB014E5F5F4F79
:101A80008417950750F0420F531F5093F80240936C
:101A9000F702F9016193719302C0E0E0F0E0CF0139
:101AA000DF91CF911F910F910895CF93DF939C0108
:101AB000009709F48FC0EC0122971B821A82609173
:101AC000F9027091FA026115710581F4888199819A
:101AD000820F931F2091F7023091F80228173907DF
:101AE00039F5D093F802C093F70274C0DB0140E0EF
:101AF00050E0AC17BD0708F1BB83AA83FE0121911A
:101B00003191E20FF31FAE17BF0779F48D919C91CD
:101B10001197280F391F2E5F3F4F39832883129664
:101B20008D919C9113979B838A834115510571F484
:101B3000D093FA02C093F9024DC012968D919C91F8
:101B40001397AD01009711F0DC01D3CFDA011396A2
:101B5000DC93CE931297FA0121913191E20FF31F9A
:101B6000CE17DF0769F488819981280F391F2E5F0E
:101B70003F4FFA01318320838A819B819383828343
:101B8000E0E0F0E0DB0112968D919C9113970097B5
:101B900019F0BC01FD01F6CFAB014E5F5F4FDB01D9
:101BA0008D919C91840F951F2091F7023091F8023E
:101BB0002817390779F4309729F41092FA02109215
:101BC000F90202C013821282425050405093F80230
:101BD0004093F702DF91CF9108950CD0EBC0E3D092
:101BE00040F0DAD030F021F45F3F19F0CCC0511151
:101BF00015C1CFC0F0D098F39923C9F35523B1F3A1
:101C0000951B550BBB27AA2762177307840738F06B
:101C10009F5F5F4F220F331F441FAA1FA9F333D0CA
:101C20000E2E3AF0E0E830D091505040E695001C7E
:101C3000CAF729D0FE2F27D0660F771F881FBB1F3A
:101C4000261737074807AB07B0E809F0BB0B802D14
:101C5000BF01FF2793585F4F2AF09E3F510568F060
:101C600092C0DCC05F3FECF3983EDCF3869577953D
:101C70006795B795F7959F5FC9F7880F911D969562
:101C8000879597F90895E1E0660F771F881FBB1FBE
:101C9000621773078407BA0720F0621B730B840B6B
:101CA000BA0BEE1F88F7E095089504D06894B1113F
:101CB000B5C0089598D088F09F5790F0B92F992714
:101CC000B751A0F0D1F0660F771F881F991F1AF047
:101CD000BA95C9F712C0B13081F09FD0B1E0089534
:101CE0009CC0672F782F8827B85F39F0B93FCCF3B5
:101CF000869577956795B395D9F73EF4909580953D
:101D0000709561957F4F8F4F9F4F0895E89409C05C
:101D100097FB3EF490958095709561957F4F8F4F1E
:101D20009F4F9923A9F0F92F96E9BB279395F69534
:101D3000879577956795B795F111F8CFFAF4BB0FB2
:101D400011F460FF1BC06F5F7F4F8F4F9F4F16C016
:101D5000882311F096E911C0772321F09EE8872FA0
:101D6000762F05C0662371F096E8862F70E060E05C
:101D70002AF09A95660F771F881FDAF7880F9695D5
:101D8000879597F9089597F99F6780E870E060E07C
:101D900008959FEF80EC089500240A941616170604
:101DA00018060906089500240A941216130614064C
:101DB00005060895092E0394000C11F4882352F0AF
:101DC000BB0F40F4BF2B11F460FF04C06F5F7F4F67
:101DD0008F4F9F4F089557FD9058440F551F59F04E
:101DE0005F3F71F04795880F97FB991F61F09F3F08
:101DF00079F087950895121613061406551FF2CF31
:101E00004695F1DF08C0161617061806991FF1CF80
:101E100086957105610508940895E894BB276627A7
:101E20007727CB0197F908950BD0C4CFB5DF28F001
:101E3000BADF18F0952309F0A6CFABCF1124EECF6F
:101E4000CADFA0F3959FD1F3950F50E0551F629F15
:101E5000F001729FBB27F00DB11D639FAA27F00D03
:101E6000B11DAA1F649F6627B00DA11D661F829F2A
:101E70002227B00DA11D621F739FB00DA11D621F0F
:101E8000839FA00D611D221F749F3327A00D611D2C
:101E9000231F849F600D211D822F762F6A2F11240E
:101EA0009F5750408AF0E1F088234AF0EE0FFF1F61
:101EB000BB1F661F771F881F91505040A9F79E3F98
:101EC000510570F060CFAACF5F3FECF3983EDCF392
:101ED000869577956795B795F795E7959F5FC1F7D5
:101EE000FE2B880F911D9695879597F90895629F0F
:101EF000D001739FF001829FE00DF11D649FE00D02
:101F0000F11D929FF00D839FF00D749FF00D659F62
:101F1000F00D9927729FB00DE11DF91F639FB00D61
:101F2000E11DF91FBD01CF011124089597FB092E72
:101F300005260ED057FD04D014D00AD0001C38F46A
:101F400050954095309521953F4F4F4F5F4F0895E5
:101F5000F6F790958095709561957F4F8F4F9F4FC5
:101F60000895A1E21A2EAA1BBB1BFD010DC0AA1FDA
:101F7000BB1FEE1FFF1FA217B307E407F50720F0F2
:101F8000A21BB30BE40BF50B661F771F881F991F6D
:101F90001A9469F760957095809590959B01AC01B6
:101FA000BD01CF010895EE0FFF1F0590F491E02DC4
:101FB00019942F923F924F925F926F927F928F92DD
:101FC0009F92AF92BF92CF92DF92EF92FF920F93C8
:101FD0001F93CF93DF93CDB7DEB7CA1BDB0B0FB6D2
:101FE000F894DEBF0FBECDBF19942A88398848887F
:101FF0005F846E847D848C849B84AA84B984C88425
:10200000DF80EE80FD800C811B81AA81B981CE0F1B
:10201000D11D0FB6F894DEBF0FBECDBFED01089500
:04202000F894FFCF62
:10202400010000008000FB020000000000006302C9
:1020340000000000090300000000AA0300000000E3
:02204400490150
:00000001FF
