:100000000C9419010C9446010C9446010C94460181
:100010000C9446010C9446010C9446010C94460144
:100020000C9446010C9446010C9446010C94460134
:100030000C9446010C9446010C9446010C94460124
:100040000C9446010C9446010C9446010C94460114
:100050000C9446010C9446010C9446010C94222801
:100060000C9446010C94F11E0C94ED1F0C94460167
:100070000C9446010C9446010C9446010C944601E4
:100080000C9446010C9446010C9446010C944601D4
:100090000C94301F0C942C200C9446010C944601B7
:1000A0000C9446010C9446010C9446010C944601B4
:1000B0000C9446010C9446010C9446010C944601A4
:1000C0000C9446010C9446010C9446010C946F1F4D
:1000D0000C946B200C9446010C94AE1F0C94AA2037
:1000E0000C94460107634236B79BD8A71A39685665
:1000F00018AEBAAB558C1D3CB7CC5763BD6DEDFD4A
:10010000753EF6177231BF000000803F00002100ED
:10011000240027002A002D003000330001010000D8
:10012000040107010A0100002200250028002B001D
:100130002E003100340002010000050108010B010E
:10014000000020002300260029002C002F00320090
:100150000001000003010601090105050505070569
:1001600008080808020202020A0A08080404040433
:10017000010101010101010103030303030303035F
:10018000040707070C0C0C0C0C0C0C0C02020202EE
:1001900006060606060606060B0B0B0B0B0B0B0BD7
:1001A0000102102020080810204010204080020189
:1001B000020108040201010204081020408080406E
:1001C000201008040201800402018040201008046D
:1001D000020108040201010204081020408001020B
:1001E0000408102040800000090A02080B0C0D07CB
:1001F00006030401000000000000000000000000F1
:1002000000000000000000000000000000000000EE
:10021000000011100F0000000000000000000000AE
:100220000000000000000000000000006E0D1A2217
:10023000670D11241FBECFEFD1E2DEBFCDBF00E0BE
:100240000CBF13E0A0E0B2E0E6EDFDE500E00BBF7F
:1002500002C007900D92A43FB107D9F71BBE17E06B
:10026000A4EFB3E001C01D92A73CB107E1F712E093
:10027000C0E3D2E004C02297FE010E94A32ECC323C
:10028000D107C9F70E94EA1E0C94DE2E0C940000E0
:10029000A0E0B0E0EEE4F1E00C94AF2EEC01A88019
:1002A000B980CA80DB80A114B104C104D10441F437
:1002B00084E2A82E89EDB82E8BE5C82E87E0D82ED3
:1002C000C601B5012DE133EF41E050E00E94722EEE
:1002D00027EA31E440E050E00E941E2E7B018C01B1
:1002E000C601B5012DE133EF41E050E00E94722ECE
:1002F000CA01B9012CEE34EF4FEF5FEF0E941E2EC2
:100300006E0D7F1D801F911F97FF04C061507040CC
:1003100080409048688379838A839B839B01AC01EA
:100320005F77B901CA01CDB7DEB7EAE00C94CB2EF6
:100330000E944801089580E893E00E9448010895D2
:10034000609380037093810380938203909383036F
:100350000895FB01DC0102C001900D924150504014
:10036000D8F70895FB01DC0101900D920020E1F720
:1003700008954F925F926F927F928F929F92AF9269
:10038000BF92CF92DF92EF92FF920F931F93DF9372
:10039000CF93CDB7DEB72A970FB6F894DEBF0FBE66
:1003A000CDBF2C01E982FA820B831C832D833E830F
:1003B0004F83588769877A8729813A810B811C810D
:1003C000CD80DE80DC01D196FE0131968AE001907D
:1003D0000D928150E1F7F20167A070A42619370948
:1003E000B901882777FD8095982F0E94622CF20131
:1003F0006783708781879287A1A4B2A40A191B0919
:10040000B801882777FD8095982F0E94622CF20111
:100410006387748785879687E3A4F4A4CE18DF08E2
:10042000B601882777FD8095982F0E94622CF201F3
:100430006787708B818B928B882477FC8094982CB3
:10044000C401B3010E94622CF201618F728F838F0D
:10045000948FCC24B7FCC094DC2CC601B5010E945B
:10046000622CF201658F768F878F90A30027F7FCAF
:100470000095102FC801B7010E94622CF20161A300
:1004800072A383A394A32A960FB6F894DEBF0FBE7F
:10049000CDBFCF91DF911F910F91FF90EF90DF9033
:1004A000CF90BF90AF909F908F907F906F905F9014
:1004B0004F9008954F925F926F927F928F929F928A
:1004C000AF92BF92CF92DF92EF92FF920F931F9362
:1004D000CF93DF932C017A015901FC0172AB61AB20
:1004E00054AB43AB36AB25ABC7A1D0A56C1B7D0B82
:1004F000882777FD8095982F0E94622CF2016783F0
:1005000070878187928761A472A4E618F708002794
:10051000F7FC0095102FC801B7010E94622CF20170
:100520006387748785879687E3A4F4A4AE18BF0811
:10053000CC24B7FCC094DC2CC601B5010E94622C0F
:10054000F2016787708B818B928BBE01882777FDC4
:100550008095982F0E94622CF201618F728F838F99
:10056000948F882477FC8094982CC401B3010E9456
:10057000622CF201658F768F878F90A30027F7FC9E
:100580000095102FC801B7010E94622CF20161A3EF
:1005900072A383A394A3DF91CF911F910F91FF903A
:1005A000EF90DF90CF90BF90AF909F908F907F9013
:1005B0006F905F904F900895AC01FB01DC01B796FE
:1005C0008AE001900D928150E1F7CA010895AC01D3
:1005D000FB01DC01F1968AE001900D928150E1F778
:1005E000CA010895FC0170A767A352A741A734A7C9
:1005F00023A70895EF92FF920F931F93DF93CF935A
:10060000CDB7DEB72A970FB6F894DEBF0FBECDBFC9
:10061000E982FA820B831C832D833E834F835887A4
:1006200069877A87DC019796FE0131968AE001900E
:100630000D928150E1F72A960FB6F894DEBF0FBEF7
:10064000CDBFCF91DF911F910F91FF90EF90089553
:10065000EF92FF920F931F93CF93DF93EC017A01F8
:100660008B01CB01BA0120E030E040E050E00E9475
:10067000372D88237CF0C801B70120E030E04FE738
:1006800053E40E94922B18162CF0EDA6FEA60FA79D
:1006900018AB06C082E397E060E072E00E94BC24E1
:1006A000DF91CF911F910F91FF90EF900895879662
:1006B0000E94090C08954F925F926F927F928F92E1
:1006C0009F92AF92BF92CF92DF92EF92FF920F93E1
:1006D0001F936C01C1960E94090CF60161A972A9D1
:1006E00047A050A464197509882777FD8095982F35
:1006F0000E94622CF601678370878187928763A9C5
:1007000074A981A492A468197909882777FD809536
:10071000982F0E94622CF6016387748785879687DD
:1007200065A976A9E3A4F4A46E197F09882777FD4B
:100730008095982F0E94622CF6016787708B818BC1
:10074000928B662457FC6094762CC301B2010E9400
:10075000622CF601618F728F838F948FAA2497FC8D
:10076000A094BA2CC501B4010E94622CF601658FD9
:10077000768F878F90A30027F7FC0095102FC80174
:10078000B7010E94622CF60161A372A383A394A314
:100790001F910F91FF90EF90DF90CF90BF90AF909F
:1007A0009F908F907F906F905F904F9008950F93E0
:1007B0001F938C010E94F525C8011F910F91089588
:1007C0004F925F926F927F928F929F92AF92BF9261
:1007D000CF92DF92EF92FF920F931F936C01C1961D
:1007E0000E94D30BF60161A972A947A050A4641915
:1007F0007509882777FD8095982F0E94622CF60155
:10080000678370878187928763A974A981A492A462
:1008100068197909882777FD8095982F0E94622CA6
:10082000F601638774878587968765A976A9E3A40F
:10083000F4A46E197F09882777FD8095982F0E9470
:10084000622CF6016787708B818B928B662457FC34
:100850006094762CC301B2010E94622CF601618F74
:10086000728F838F948FAA2497FCA094BA2CC50111
:10087000B4010E94622CF601658F768F878F90A35A
:100880000027F7FC0095102FC801B7010E94622CC9
:10089000F60161A372A383A394A31F910F91FF900C
:1008A000EF90DF90CF90BF90AF909F908F907F9010
:1008B0006F905F904F900895EF92FF920F931F9368
:1008C000CF93DF93EC01EDA4FEA40FA518A9C801F6
:1008D000B70120E030E040E050E00E94922B8823F6
:1008E00009F451C06FA178A5882777FD8095982FCE
:1008F0000E94622CA80197010E94AB2D20E030E0FD
:100900004FE753E40E94962B0E942F2C9B01AC01D1
:100910008B89B9010E94672969A57AA5882777FD87
:100920008095982F0E94622C2DA53EA54FA558A911
:100930000E94AB2D20E030E04FE753E40E94962B5D
:100940000E942F2C9B01AC018D89B9010E9467295F
:100950006BA57CA5882777FD8095982F0E94622C37
:100960002DA53EA54FA558A90E94AB2D20E030E053
:100970004FE753E40E94962B0E942F2C9B01AC0161
:100980008F89B9010DC08B8960E070E00E946729F2
:100990008D8960E070E00E9467298F8960E070E0D7
:1009A0000E946729DF91CF911F910F91FF90EF90E7
:1009B00008954F925F926F927F928F929F92AF9223
:1009C000BF92CF92DF92EF92FF920F931F938C0111
:1009D000FC01678170858185928520E030E040E8E8
:1009E0005BE30E94AB2D9B01AC01F801618D728D20
:1009F000838D948D0E942E2B2B013C01F801618F79
:100A0000728F838F948F638574858585968520E0AA
:100A100030E040E85BE30E94AB2D9B01AC01F801A4
:100A2000658D768D878D90A10E942E2B4B015C01E8
:100A3000F801658F768F878F90A36785708981898C
:100A4000928920E030E040E85BE30E94AB2D9B01FF
:100A5000AC01F80161A172A183A194A10E942E2B87
:100A60006B017C01F80161A372A383A394A3C3016A
:100A7000B2010E942F2CF80170A767A3C501B40131
:100A80000E942F2CF80172A761A7C701B6010E942E
:100A90002F2CF80174A763A7C8010E945C041F9162
:100AA0000F91FF90EF90DF90CF90BF90AF909F900D
:100AB0008F907F906F905F904F900895EF92FF928C
:100AC0000F931F93CF93DF93EC01EDA4FEA40FA52A
:100AD00018A9C801B70120E030E040EF51E40E94BE
:100AE0002D2B20E030E048EC52E40E94962B0E942F
:100AF000032C9B01AC01C801B7010E942D2B6DA7EF
:100B00007EA78FA798AB20E030E040E050E00E9445
:100B1000922B882344F480E090E0A0E0B0E08DA721
:100B20009EA7AFA7B8ABCE010E945C04DF91CF9126
:100B30001F910F91FF90EF900895EF92FF920F9306
:100B40001F93CF93DF93EC01EDA4FEA40FA518A98A
:100B5000C801B70120E030E040EF51E40E942D2BA6
:100B600020E030E048EC52E40E94962B0E94032CD7
:100B70009B01AC01C801B7010E942E2B6DA77EA777
:100B80008FA798AB20E030E04FE753E40E94372D69
:100B9000181644F480E090E0AFE7B3E48DA79EA779
:100BA000AFA7B8ABCE010E945C04DF91CF911F913B
:100BB0000F91FF90EF900895CF93DF93EC018DA1FB
:100BC0009EA1892B31F0CE010E945C041EA21DA2C1
:100BD00013C08B8960E070E00E9467298D8960E016
:100BE00070E00E9467298F8960E070E00E946729A9
:100BF00081E090E09EA38DA3DF91CF9108958F9225
:100C00009F92AF92BF92CF92DF92EF92FF920F939B
:100C10001F937C016B015A01490169E372E00E9454
:100C2000C425C70187960E948A0BC701C1960E94FE
:100C30008A0BF701D48AC38AB68AA58A908E878ADE
:100C4000C701B8010E94DE25F70116A215A2C7014F
:100C50000E945C041F910F91FF90EF90DF90CF9066
:100C6000BF90AF909F908F90089508950F931F931A
:100C7000CF93DF938C01C0E0D0E0F801A481B5816F
:100C8000109741F0ED91FC9111970190F081E02DCA
:100C9000CD01199521960E5F1F4FC430D10569F71C
:100CA000DF91CF911F910F910895FC0173836283AF
:100CB0000895FA013296EE0FFF1FE80FF91F7183B6
:100CC00060830895FC01158214820895EF92FF92CB
:100CD0000F931F93CF93DF93EC018889882359F1F9
:100CE000EC8CFD8C0E8D1F8D89899A89AB89BC890E
:100CF000E80EF91E0A1F1B1F0E946A28E616F70657
:100D000008071907C0F488A199A11816190644F418
:100D1000CE010E943606188A8FEF9FEF99A388A311
:100D20000E946A28698B7A8B8B8B9C8B88A199A1F6
:100D3000019699A388A3DF91CF911F910F91FF9006
:100D4000EF900895CF93DF93EC0182E397E06AE39D
:100D500072E00E94BC248CA19DA101969DA38CA34E
:100D6000049754F1AC8DBD8DED91FC9111970190DC
:100D7000F081E02DCD011995AE8DBF8DED91FC91E7
:100D800011970190F081E02DCD011995A8A1B9A18D
:100D9000ED91FC9111970190F081E02DCD01199515
:100DA000AAA1BBA1ED91FC9111970190F081E02DDA
:100DB000CD0119951DA21CA2DF91CF9108950F932B
:100DC0001F93FC01758F648F578F468F31A320A32B
:100DD00013A302A382E397E067E472E00E94BC24BD
:100DE0001F910F910895CF92DF92EF92FF920F9390
:100DF0001F93DF93CF93CDB7DEB727970FB6F89445
:100E0000DEBF0FBECDBF6C01FC018089882309F4D1
:100E100063C0E48CF58C0027F7FC0095102F8189C6
:100E20009289A389B489E80EF91E0A1F1B1F0E942C
:100E30006A28E616F7060807190708F04DC0F601FC
:100E4000828193810E94D904F60184859585A685C7
:100E5000B7850196A11DB11D84879587A687B787A1
:100E60000E946A28F601618B728B838B948B868D2E
:100E7000978DAA2797FDA095BA2F2485358546859D
:100E8000578582179307A407B50730F5C6010E945E
:100E90003606F601108A148615861686178682E3B2
:100EA00097E068E572E00E94B924F60162817381DF
:100EB0008E010F5F1F4FC8010E94D70382E397E0A6
:100EC000B8010E94CF24C8010E940026F601828149
:100ED000938187960E949A0B27960FB6F894DEBFEF
:100EE0000FBECDBFCF91DF911F910F91FF90EF907B
:100EF000DF90CF900895EF92FF920F931F93CF93BF
:100F0000DF93EC018889882309F441C0EC8CFD8CC7
:100F10000027F7FC0095102F89899A89AB89BC8935
:100F2000E80EF91E0A1F1B1F0E946A28E616F70624
:100F30000807190760F58A819B810E945E058C85F0
:100F40009D85AE85BF850196A11DB11D8C879D87AE
:100F5000AE87BF870E946A28698B7A8B8B8B9C8BAC
:100F60008E8D9F8DAA2797FDA095BA2F2C853D8544
:100F70004E855F8582179307A407B50740F4CE011D
:100F80000E943606188A1C861D861E861F86DF91E3
:100F9000CF911F910F91FF90EF900895EF92FF92E4
:100FA0000F931F93CF93DF93EC018889882309F473
:100FB00041C0EC8CFD8C0027F7FC0095102F89892F
:100FC0009A89AB89BC89E80EF91E0A1F1B1F0E9473
:100FD0006A28E616F7060807190760F58A819B81DB
:100FE0000E949D058C859D85AE85BF850196A11DBE
:100FF000B11D8C879D87AE87BF870E946A28698B49
:101000007A8B8B8B9C8B8E8D9F8DAA2797FDA095BD
:10101000BA2F2C853D854E855F8582179307A407DF
:10102000B50740F4CE010E943606188A1C861D863C
:101030001E861F86DF91CF911F910F91FF90EF9039
:101040000895EF92FF920F931F93CF93DF93EC01DC
:101050008889882309F499C069897A898B899C8950
:101060000E94602C2E8D3F8D48A159A10E942E2BED
:101070007B018C010E946A280E94602C9B01AC01BC
:10108000C801B7010E94922B88230CF07EC0EE8C21
:10109000FF8C08A119A1C801B70120E030E048EC9D
:1010A00052E40E94372D18163CF4C801B7012DEC0C
:1010B0003CEC4CEC5DE328C0C801B70120E030E017
:1010C00046E952E40E94372D18163CF4C801B701D6
:1010D0002AE037ED43E25DE317C0C801B70120E025
:1010E00030E048E452E40E94372D18163CF4C80161
:1010F000B7012AE037ED43E25CE306C0C801B7015F
:101100002AE037ED43EA5BE30E94AB2D6AA37BA3A1
:101110008CA39DA38A819B810E94DC058C859D8583
:10112000AE85BF850196A11DB11D8C879D87AE87B9
:10113000BF870E946A28698B7A8B8B8B9C8B6E8D04
:101140007F8D88A199A12AA13BA14CA15DA10E94FC
:101150002D2B6E8F7F8F88A399A320E030E040E293
:1011600051E40E94922B882384F4CE010E9436061B
:10117000188A6C8D7D8D882777FD8095982F0E9429
:10118000622C6E8F7F8F88A399A3DF91CF911F91DF
:101190000F91FF90EF900895EF92FF920F931F939E
:1011A000CF93DF93EC018889882309F441C0EC8C4C
:1011B000FD8C0027F7FC0095102F89899A89AB894F
:1011C000BC89E80EF91E0A1F1B1F0E946A28E6163A
:1011D000F7060807190760F58A819B810E94DC05E4
:1011E0008C859D85AE85BF850196A11DB11D8C871F
:1011F0009D87AE87BF870E946A28698B7A8B8B8B0D
:101200009C8B8E8D9F8DAA2797FDA095BA2F2C853C
:101210003D854E855F8582179307A407B50740F487
:10122000CE010E943606188A1C861D861E861F86E1
:10123000DF91CF911F910F91FF90EF9008950F9341
:101240001F93CF93DF93EC0188898823B9F00A813B
:101250001B816C8D7D8D882777FD8095982F0E944E
:10126000622CAB01BC01C8010E9428038A819B81CA
:101270000E945C04CE010E943606188ADF91CF914D
:101280001F910F910895CF92DF92EF92FF920F93EB
:101290001F93DF93CF93CDB7DEB76B970FB6F8945C
:1012A000DEBF0FBECDBF6C01DC0150968C91509714
:1012B000882309F41DC1DA968D919C91DB978230C9
:1012C0009105F1F08330910534F4009759F00197BE
:1012D00009F0D2C00DC083309105E1F0049709F008
:1012E000CBC031C0F601828193810E945B03CFC0E5
:1012F000D60112968D919C9113970E94E003C7C06E
:10130000F601648D758D468D578D20A131A18281A6
:101310009381BBC0D60112960D911C9113979296A2
:101320006D917C919397CE0108960E94DC02C801D2
:10133000E884F9840A851B852C853D854E855F856B
:101340006889798996C08E010E5E1F4FF60164A1EF
:1013500075A1C8010E94E702D6019696F8018AE0BD
:1013600001900D928150E1F78E010E5E1F4FD60164
:1013700092966D917C919397C8010E94E702D601E5
:10138000D096F8018AE001900D928150E1F7F601C4
:1013900026A137A180A991A9821B930B04ACF5ADBE
:1013A000E02DAC014E9FC0014F9F900D5E9F900DB0
:1013B000112463E070E00E943D2E620F731FE62E41
:1013C000D60197967C936E93969798962D913C9123
:1013D0009997D2968D919C91D397821B930BAC01D8
:1013E0004E9FC0014F9F900D5E9F900D112463E0B2
:1013F00070E00E943D2E620F731F062FD601999652
:101400007C936E9398979A962D913C919B97D49646
:101410008D919C91D597821B930BAC014E9FC0017F
:101420004F9F900D5E9F900D112463E070E00E942D
:101430003D2E620F731F262FD6019B967C936E93D1
:101440009A9712968D919C9113979796FC909797E7
:1014500099961C9199979B963C919B979C964C9141
:101460009C979D965C919D979E966C919E979F965A
:101470007C910E94B9010BC0F601828193816FEFCC
:1014800070E04FEF50E02FEF30E00E945A0282E30D
:1014900097E068E572E00E94B924D60112966D913A
:1014A0007C9113978E010F5F1F4FC8010E94D703D5
:1014B00082E397E0B8010E94CF24C8010E94002671
:1014C00082E397E06CE572E00E94B924F601828124
:1014D0009381C1960E949A0B82E397E069E672E0DD
:1014E0000E94B924C6010E943606D60150961C926D
:1014F0006B960FB6F894DEBF0FBECDBFCF91DF91D4
:101500001F910F91FF90EF90DF90CF900895CF92B1
:10151000DF92EF92FF920F931F93DF93CF93CDB79C
:10152000DEB72A970FB6F894DEBF0FBECDBF6C01B1
:10153000FC018089882309F447C024A135A121300A
:10154000310551F02230310589F082819381232BBE
:1015500021F50E94570329C0F601668D778D40A1C1
:1015600051A122A133A1828193811DC0F601028184
:101570001381648D758DCE0101960E94DC02C80135
:10158000E980FA800B811C812D813E814F81588535
:1015900069857A850E94FA0208C06FEF70E04FEF0C
:1015A00050E02FEF30E00E94F202F6018281938139
:1015B0000E945C04C6010E943606F601108A8281F0
:1015C000938187960E949A0B2A960FB6F894DEBFF5
:1015D0000FBECDBFCF91DF911F910F91FF90EF9084
:1015E000DF90CF9008950F931F938C016B5E7F4F18
:1015F0000E94F525C8011F910F910895CF92DF92A7
:10160000EF92FF920F931F93DF93CF93CDB7DEB787
:101610002E970FB6F894DEBF0FBECDBF6C0181E0F0
:10162000F601808B628173818E010F5F1F4FC801AD
:101630000E94D70332E3E32E37E0F32EC701B8014F
:101640000E94CF24C8010E940026C70164E772E00F
:101650000E94B9248E01085F1F4FC801B6010E9485
:10166000F30AC701B8010E94CF24C8010E940026D6
:10167000C70167E772E00E94B924C701F6016089DB
:101680004AE050E00E9429242E960FB6F894DEBF5F
:101690000FBECDBFCF91DF911F910F91FF90EF90C3
:1016A000DF90CF900895CF92DF92EF92FF920F9349
:1016B0001F938C016B018FED93E0F8019183808380
:1016C00055E1E52EF12CE00EF11EC70164E872E051
:1016D0000E94C425F8011486158616861786108A7E
:1016E0000E946A28F801618B728B838B948B158220
:1016F0001482178216821186108613861286C701FD
:10170000B6010E94DE251F910F91FF90EF90DF90B0
:10171000CF900895FC0111821082138212821582EB
:10172000148280E090E0A0E0B0E086839783A087F9
:10173000B1870895CF92DF92EF92FF920F931F939C
:101740007C0102E317E0C8016DE872E00E94B92451
:10175000F70160817181C8014AE050E00E9487244E
:1017600080EAC82E82E0D82EC801B6010E94B924B2
:10177000F70162817381C8014AE050E00E9487242A
:10178000C801B6010E94B924F70164817581C801BE
:101790004AE050E00E949A241F910F91FF90EF9031
:1017A000DF90CF900895CF93DF93EC0160E071E07C
:1017B00080E090E00E9402257983688360E071E018
:1017C00080E090E00E9402257B836A8360E071E004
:1017D00080E090E00E940225AB017D836C8328812C
:1017E00039812C3D31055CF48A819B818C3D9105CA
:1017F0001CF44C3D5105D4F22B3031053CF08A816C
:101800009B810B971CF04B30510584F6DF91CF91F3
:101810000895CF93DF93EC0160E071E080E090E009
:101820000E9402257983688360E071E080E090E0A7
:101830000E9402257B836A8360E071E080E090E093
:101840000E940225AB017D836C8328813981283C6D
:1018500031055CF48A819B81883C91051CF4483CED
:101860005105D4F22F3131053CF08A819B814F978D
:101870001CF04F31510584F6DF91CF910895CF933D
:10188000DF93CCE2D0E0E091E404F091E504EC0FCA
:10189000FD1FA081B181ED91FC9111970280F38130
:1018A000E02DCD011995E091E604F091E704EC0FED
:1018B000FD1FA081B181ED91FC9111970280F38110
:1018C000E02DCD011995E091E804F091E904EC0FC9
:1018D000FD1FA081B181ED91FC9111970280F381F0
:1018E000E02DCD011995E091EA04F091EB04EC0FA5
:1018F000FD1FA081B181ED91FC9111970280F381D0
:10190000E02DCD0119952296C633D10509F0BBCF44
:10191000DF91CF910895EF92FF920F931F93DF9382
:10192000CF93CDB7DEB7A3970FB6F894DEBF0FBE47
:10193000CDBF8130910509F09EC06F5F7F4F09F0E8
:10194000B9C07E010894E11CF11CC70162EA72E093
:101950000E94C42584EF93E062E070E043E050E031
:1019600024E030E087010E94FF05C7010E940026A5
:1019700028E0E22EF12CEC0EFD1EC70168EA72E0B1
:101980000E94C4258FE294E065E070E046E050E0FC
:1019900027E030E087010E94FF05C7010E94002672
:1019A0009FE0E92EF12CEC0EFD1EC7016CEA72E0FF
:1019B0000E94C4258AE694E068E070E049E050E0C7
:1019C0002AE030E087010E94FF05C7010E9400263F
:1019D00086E1E82EF12CEC0EFD1EC70164EB72E0EF
:1019E0000E94C42585EA94E06BE070E04CE050E092
:1019F0002DE030E087010E94FF05C7010E9400260C
:101A000086E390E00E941C289093E5048093E40410
:101A100086E390E00E941C289093E7048093E604FC
:101A200086E390E00E941C289093E9048093E804E8
:101A300086E390E00E941C289093EB048093EA04D4
:101A40008E01035E1F4FC80169EB72E00E94C4253E
:101A50008CEE94E0B8010E94530BC8010E9400264E
:101A600087E993E09093ED048093EC0410921105C4
:101A7000109210051FC0892BE9F46F5F7F4FD1F4DE
:101A80008FED93E09093ED048093EC0481E095E07A
:101A90000E94002685EA94E00E9400268AE694E0EF
:101AA0000E9400268FE294E00E94002684EF93E0DB
:101AB0000E940026A3960FB6F894DEBF0FBECDBFDE
:101AC000CF91DF911F910F91FF90EF90089580E0EB
:101AD00090E06FEF7FEF0E948B0C089581E090E023
:101AE0006FEF7FEF0E948B0C0895AF92BF92CF9261
:101AF000DF92EF92FF920F931F93DF93CF93CDB7B7
:101B0000DEB727970FB6F894DEBF0FBECDBF7C01BE
:101B10006B015A018E010F5F1F4FC80165EC72E027
:101B20000E94C425C701B8010E94530BC8010E943E
:101B300000268FEB93E0F70191838083D58EC48ECE
:101B4000B78EA68E27960FB6F894DEBF0FBECDBF18
:101B5000CF91DF911F910F91FF90EF90DF90CF9089
:101B6000BF90AF900895EF92FF920F931F93DF9372
:101B7000CF93CDB7DEB727970FB6F894DEBF0FBE71
:101B8000CDBF7C018E010F5F1F4FC8016BEC72E06F
:101B90000E94C425C701B8010E94530BC8010E94CE
:101BA000002687ED93E0F7019183808315A214A2AC
:101BB00027960FB6F894DEBF0FBECDBFCF91DF9151
:101BC0001F910F91FF90EF900895AF92BF92CF9227
:101BD000DF92EF92FF920F931F93DF93CF93CDB7D6
:101BE000DEB727970FB6F894DEBF0FBECDBF7C01DE
:101BF0006B015A018E010F5F1F4FC8016BED72E040
:101C00000E94C425C701B8010E94530BC8010E945D
:101C100000268FE993E0F70191838083D58EC48EEF
:101C2000B78EA68E27960FB6F894DEBF0FBECDBF37
:101C3000CF91DF911F910F91FF90EF90DF90CF90A8
:101C4000BF90AF900895AF92BF92CF92DF92EF9284
:101C5000FF920F931F93DF93CF93CDB7DEB72797F4
:101C60000FB6F894DEBF0FBECDBF7C016B015A01E9
:101C70008E010F5F1F4FC80165EE72E00E94C42500
:101C8000C701B8010E94530BC8010E9400268FEAC9
:101C900093E0F70191838083D58EC48EB78EA68E94
:101CA00027960FB6F894DEBF0FBECDBFCF91DF9160
:101CB0001F910F91FF90EF90DF90CF90BF90AF906A
:101CC0000895AF92BF92CF92DF92EF92FF920F935F
:101CD0001F93DF93CF93CDB7DEB727970FB6F89456
:101CE000DEBF0FBECDBF7C016B015A018E010F5FBD
:101CF0001F4FC8016DEE72E00E94C425C701B801F4
:101D00000E94530BC8010E94002687EA93E0F70166
:101D100091838083D58EC48EB78EA68E27960FB6FC
:101D2000F894DEBF0FBECDBFCF91DF911F910F9111
:101D3000FF90EF90DF90CF90BF90AF900895AF925B
:101D4000BF92CF92DF92EF92FF920F931F93DF9398
:101D5000CF93CDB7DEB727970FB6F894DEBF0FBE8F
:101D6000CDBF7C015A016B018E010F5F1F4FC8016F
:101D700067EF72E00E94C425C701B8010E94530BAF
:101D8000C8010E9400268FE893E0F70191838083C9
:101D9000A48EB58EC68ED78E8FEF9FEF91A380A3B2
:101DA00027960FB6F894DEBF0FBECDBFCF91DF915F
:101DB0001F910F91FF90EF90DF90CF90BF90AF9069
:101DC0000895AF92BF92CF92DF92EF92FF920F935E
:101DD0001F93CF93DF936C01EB018C01EE24FF2462
:101DE0005B010894A108B1080EC0F80162817381FB
:101DF0008081918140E050E00E9459060894E11CE6
:101E0000F11C0E5F1F4FEA14FB047CF32197CC0FEB
:101E1000DD1FCC0EDD1EF601808191816CEE74E039
:101E200040E050E00E945906DF91CF911F910F9141
:101E3000FF90EF90DF90CF90BF90AF900895CF923A
:101E4000DF92EF92FF920F931F93DF93CF93CDB763
:101E5000DEB727970FB6F894DEBF0FBECDBF7C016B
:101E60006B018E010F5F1F4FC8016FEF72E00E9480
:101E7000C425C701B8010E94530BC8010E94002667
:101E80008FEC93E0F70191838083C70186960E94CF
:101E90008A0BC701C0960E948A0B83E090E0F7018D
:101EA00093AF82AFD3A2C2A227960FB6F894DEBF3B
:101EB0000FBECDBFCF91DF911F910F91FF90EF909B
:101EC000DF90CF900895EF92FF920F931F93DF93CF
:101ED000CF93CDB7DEB727970FB6F894DEBF0FBE0E
:101EE000CDBF7C018E010F5F1F4FC80166E173E01B
:101EF0000E94C425C701B8010E94530BC8010E946B
:101F000000268FEC93E0F70191838083C7018696CA
:101F10000E948A0BC701C0960E948A0B81E090E064
:101F2000F70193AF82AF27960FB6F894DEBF0FBECE
:101F3000CDBFCF91DF911F910F91FF90EF9008954A
:101F40008F929F92AF92BF92CF92DF92EF92FF92C9
:101F50000F931F93DF93CF93CDB7DEB727970FB6BD
:101F6000F894DEBF0FBECDBF8C014B016A01590151
:101F70007E010894E11CF11CC70160E373E00E943C
:101F8000C425C801B7010E94530BC7010E94002657
:101F90008FEC93E0F80191838083C80186960E94BC
:101FA0008A0BC801C0960E948A0B84E090E0F80179
:101FB00093AF82AFD3A2C2A295A284A2B5AEA4AEC3
:101FC00027960FB6F894DEBF0FBECDBFCF91DF913D
:101FD0001F910F91FF90EF90DF90CF90BF90AF9047
:101FE0009F908F900895CF92DF92EF92FF920F9380
:101FF0001F93CF93DF936B017A018C01C0E0D0E097
:1020000008C0F801819191918F01B6010E94550697
:102010002196CE15DF05ACF3DF91CF911F910F9183
:10202000FF90EF90DF90CF9008958F929F92AF92A4
:10203000BF92CF92DF92EF92FF920F931F93DF93A5
:10204000CF93CDB7DEB727970FB6F894DEBF0FBE9C
:10205000CDBF45EA842E44E0942EC4016FEF70E0BA
:102060004FEF50E02FEF30E00E94F202C40140E059
:1020700050E06FE773E40E942803C090EA04D09018
:10208000EB046AEF70E080E090E00E9402257B01A3
:102090008C0180E290E00E941F28B82EA92EB70183
:1020A00043E050E00E94750DF601B082A1820091DC
:1020B000EA041091EB046AEF70E080E090E00E9487
:1020C00002256B017C0180E290E00E941F28B82E5F
:1020D000A92EB60143E050E00E94750DF801B282CE
:1020E0000E5F1F4FF801A1820091EA041091EB04EA
:1020F0006AEF70E080E090E00E9402256B017C01B5
:1021000080E290E00E941F28B82EA92EB60143E07D
:1021100050E00E94750DF801B4820C5F1F4FF8016A
:10212000A1820091EA041091EB046AEF70E080E074
:1021300090E00E9402256B017C0180E290E00E9409
:102140001F28B82EA92EB60143E050E00E94750D5D
:10215000F801B6820A5F1F4FF801A1820091EA04DC
:102160001091EB0480E290E00E941F28F82EE92EE7
:102170006091E0047091E104882777FD8095982FA5
:102180000E94622C26E636E646E65FE30E94AB2D0F
:102190000E942F2C9B01AC018F2D9E2D6BE470E0D3
:1021A000A9010E94610EF801F086085F1F4FF80137
:1021B000E1820091EA041091EB0480E290E00E9439
:1021C0001F28F82EE92E6091E0047091E104882721
:1021D00077FD8095982F0E94622C2EEA37E441EE1D
:1021E0005DE30E94AB2D0E942F2C9B01AC018F2D33
:1021F0009E2D64E670E0A9010E94610EF801F2864E
:10220000065F1F4FF801E1820091EA041091EB0490
:1022100086E290E00E941F28F82EE92E0E94B30D5E
:10222000F801F486045F1F4FF801E1820091EA048F
:102230001091EB048EE390E00E941F28F82EE92E07
:1022400064EF73E00E941F0FF801F686025F1F4FD4
:10225000F801E1820091EA041091EB046CED75E065
:1022600080E090E00E9402256B017C0182E290E018
:102270000E941F28B82EA92EB701A6010E949F0E0A
:10228000F801B08A005F1F4FF801A1820091EA04B3
:102290001091EB046AE070E080E090E00E9402257B
:1022A0006B017C0180E290E00E941F28B82EA92ECD
:1022B0004091E0045091E104B6010E94230EF80120
:1022C000B28A0E5E1F4FF801A1820091EA041091BC
:1022D000EB0480E290E00E941F28F82EE92E409146
:1022E000E2045091E3046FE070E00E94E50DF80114
:1022F000F48A0C5E1F4FF801E1820091EA0410910C
:10230000EB047E010894E11CF11CC70169E473E051
:102310000E94C4258EE390E00E941F28D82EC92E6B
:10232000B7010E94630FF801D68A0A5E1F4FF801B9
:10233000C182C7010E9400260091EA041091EB04BB
:1023400080E290E00E941F28F82EE92E4091E204DE
:102350005091E30464E170E00E94E50DF801F08E15
:10236000085E1F4FF801E1820091EA041091EB042E
:1023700082E290E00E941F28F82EE92E40E157E209
:1023800060E070E00E949F0EF801F28E065E1F4F23
:10239000F801E1820091EA041091EB0460E570E03D
:1023A00080E090E02CE231E040E050E00E94242503
:1023B0006B017C0180E290E00E941F28B82EA92EBC
:1023C0004091E0045091E104B6010E94610EF801D1
:1023D000B48E045E1F4FF801A1820091EA041091AF
:1023E000EB0482E290E00E941F28F82EE92E41E0E3
:1023F00050E060E070E00E949F0EF801F68E025EF1
:102400001F4FF801E1820091EA041091EB0482E28F
:1024100090E00E941F28F82EE92E41E050E060E095
:1024200070E00E949F0EF801F0A2005E1F4FF801BD
:10243000E1820091EA041091EB0482E290E00E94B4
:102440001F28F82EE92E41E050E060E070E00E9485
:102450009F0EF801F2A20E5D1F4FF801E18200917C
:10246000EA041091EB0482E290E00E941F28F82E0B
:10247000E92E41E050E060E070E00E949F0EF8011C
:10248000F4A20C5D1F4FF801E1820091EA04109163
:10249000EB0482E290E00E941F28F82EE92E41E032
:1024A00050E060E070E00E949F0EF801F6A20A5D25
:1024B0001F4FF801E1820091EA041091EB0482E2DF
:1024C00090E00E941F28F82EE92E41E050E060E0E5
:1024D00070E00E949F0EF801F0A6085D1F4FF80102
:1024E000E1820091EA041091EB0482E290E00E9404
:1024F0001F28F82EE92E41E050E060E070E00E94D5
:102500009F0EF801F2A6065D1F4FF801E1820091CF
:10251000EA041091EB0480E290E00E941F28F82E5C
:10252000E92E4091E0045091E10461E070E00E94E6
:10253000230EF801F4A6045D1F4FF801E18200911B
:10254000EA041091EB0480E290E00E941F28F82E2C
:10255000E92E4091E0045091E10461E070E00E94B6
:10256000610EF801F6A6025D1F4FF801E1820091AD
:10257000EA041091EB0480E290E00E941F28F82EFC
:10258000E92E6091E0047091E104882777FD809541
:10259000982F0E94622C20E030E040E05FE30E9430
:1025A000AB2D0E942F2C9B01AC018F2D9E2D62E044
:1025B00070E0A9010E94230EF801F0AA005D1F4FF0
:1025C000F801E1820091EA041091EB0480E290E0CE
:1025D0000E941F28F82EE92E6091E0047091E1041A
:1025E000882777FD8095982F0E94622C20E030E0AC
:1025F00040E05FE30E94AB2D0E942F2C9B01AC01B9
:102600008F2D9E2D62E070E0A9010E94610EF801FD
:10261000F2AA0E5C1F4FF801E1820091EA041091CA
:10262000EB0482E290E00E941F28F82EE92E40E29F
:1026300053E060E070E00E949F0EF801F4AA0C5C89
:102640001F4FF801E1828091EA049091EB04B401FC
:102650004BE150E00E94F30F8091EA049091EB046B
:102660006BE170E00E94E10EE091EA04F091EB046E
:10267000A4A5B5A5ED91FC9111970190F081E02DF5
:10268000CD011995A091EA04B091EB04E091E80422
:10269000F091E9046085718518968D919C91199748
:1026A00040E050E00E945906A091EA04B091EB048A
:1026B000E091E404F091E504608571851A968D91AE
:1026C0009C911B9740E050E00E945906E091EA047B
:1026D000F091EB04848595850E946206A091EA043E
:1026E000B091EB04E091E804F091E9046489758904
:1026F00056968D919C91579740E050E00E94590664
:1027000027960FB6F894DEBF0FBECDBFCF91DF91F5
:102710001F910F91FF90EF90DF90CF90BF90AF90FF
:102720009F908F9008956F927F928F929F92AF9219
:10273000BF92CF92DF92EF92FF920F931F936AE6C0
:10274000662E64E0762EC3016FEF70E04FEF50E02D
:102750002FEF30E00E94F202C30140E050E06FE74B
:1027600073E40E942803C090E804D090E9046AEF63
:1027700070E080E090E00E9402257B018C0180E205
:1027800090E00E941F28B82EA92EB70143E050E028
:102790000E94750DF601B082A1820091E8041091AB
:1027A000E9046AEF70E080E090E00E9402256B018E
:1027B0007C0180E290E00E941F28B82EA92EB6016D
:1027C00043E050E00E94750DF801B2820E5F1F4F8A
:1027D000F801A1820091E8041091E9046AEF70E029
:1027E00080E090E00E9402256B017C0180E290E095
:1027F0000E941F28B82EA92EB60143E050E00E9487
:10280000750DF801B4820C5F1F4FF801A182009191
:10281000E8041091E9046AEF70E080E090E00E9423
:1028200002256B017C0180E290E00E941F28B82EF7
:10283000A92EB60143E050E00E94750DF801B68262
:102840000A5F1F4FF801A1820091E8041091E9048A
:1028500080E290E00E941F28F82EE92E4091E004CB
:102860005091E1046DE770E00E94610EF801F0867E
:10287000085F1F4FF801E1820091E8041091E9041C
:1028800086E290E00E941F28F82EE92E0E94B30DE8
:10289000F801F286065F1F4FF801E1820091E8041B
:1028A0001091E9048EE390E00E941F28F82EE92E93
:1028B00055EA852E54E0952EB4010E941F0FF801B1
:1028C000F486045F1F4FF801E1820091E804109143
:1028D000E9046CED75E080E090E00E9402256B0158
:1028E0007C0182E290E00E941F28B82EA92EB70139
:1028F000A6010E949F0EF801B686025F1F4FF801E5
:10290000A1820091E8041091E9046AE070E080E09F
:1029100090E00E9402256B017C0180E290E00E9421
:102920001F28B82EA92E4091E0045091E104B60171
:102930000E94230EF801B08A005F1F4FF801A182A8
:102940000091E8041091E90480E290E00E941F28C1
:10295000F82EE92E4091E2045091E3046FE070E01C
:102960000E94E50DF801F28A0E5E1F4FF801E18228
:102970000091E8041091E9048EE390E00E941F2882
:10298000F82EE92E64EF73E0A40122E030E00E940B
:10299000A00FF801F48A0C5E1F4FF801E18200914C
:1029A000E8041091E90480E290E00E941F28F82ECC
:1029B000E92E4091E2045091E30464E170E00E944A
:1029C000E50DF801F68A0A5E1F4FF801E1820091D9
:1029D000E8041091E90482E290E00E941F28F82E9A
:1029E000E92E40E157E260E070E00E949F0EF8019E
:1029F000F08E085E1F4FF801E1820091E80410910B
:102A0000E90460E570E080E090E02CE231E040E035
:102A100050E00E9424256B017C0180E290E00E943E
:102A20001F28B82EA92E4091E0045091E104B60170
:102A30000E94610EF801B28E065E1F4FF801A1825E
:102A40000091E8041091E90482E290E00E941F28BE
:102A5000F82EE92E41E050E060E070E00E949F0E09
:102A6000F801F48E045E1F4FF801E1820091E80442
:102A70001091E90482E290E00E941F28F82EE92ECE
:102A800041E050E060E070E00E949F0EF801F68E99
:102A9000025E1F4FF801E1820091E8041091E90401
:102AA00082E290E00E941F28F82EE92E41E050E0DB
:102AB00060E070E00E949F0EF801F0A2005E1F4FE0
:102AC000F801E1820091E8041091E90482E290E0CB
:102AD0000E941F28F82EE92E41E050E060E070E0EF
:102AE0000E949F0EF801F2A20E5D1F4FF801E182D5
:102AF0000091E8041091E90482E290E00E941F280E
:102B0000F82EE92E41E050E060E070E00E949F0E58
:102B1000F801F4A20C5D1F4FF801E1820091E80476
:102B20001091E90482E290E00E941F28F82EE92E1D
:102B300041E050E060E070E00E949F0EF801F6A2D4
:102B40000A5D1F4FF801E1820091E8041091E90449
:102B500082E290E00E941F28F82EE92E41E050E02A
:102B600060E070E00E949F0EF801F0A6085D1F4F24
:102B7000F801E1820091E8041091E90482E290E01A
:102B80000E941F28F82EE92E41E050E060E070E03E
:102B90000E949F0EF801F2A6065D1F4FF801E18228
:102BA0000091E8041091E90480E290E00E941F285F
:102BB000F82EE92E4091E0045091E10461E070E0CC
:102BC0000E94230EF801F4A6045D1F4FF801E18274
:102BD0000091E8041091E90480E290E00E941F282F
:102BE000F82EE92E4091E0045091E10461E070E09C
:102BF0000E94610EF801F6A6025D1F4FF801E18206
:102C00000091E8041091E90480E290E00E941F28FE
:102C1000F82EE92E6091E0047091E104882777FD99
:102C20008095982F0E94622C20E030E040E05FE326
:102C30000E94AB2D0E942F2C9B01AC018F2D9E2D4D
:102C400062E070E0A9010E94230EF801F0AA005D85
:102C50001F4FF801E1820091E8041091E90480E23D
:102C600090E00E941F28F82EE92E6091E0047091F8
:102C7000E104882777FD8095982F0E94622C20E040
:102C800030E040E05FE30E94AB2D0E942F2C9B01BF
:102C9000AC018F2D9E2D62E070E0A9010E94610EB3
:102CA000F801F2AA0E5C1F4FF801E1820091E804DE
:102CB0001091E90482E290E00E941F28F82EE92E8C
:102CC00040E253E060E070E00E949F0EF801F4AA39
:102CD0000C5C1F4FF801E1828091E8049091E904B7
:102CE000B3014BE150E00E94F30F8091E804909112
:102CF000E9046BE170E00E94E10EE091E804F091DC
:102D0000E904A4A5B5A5ED91FC9111970190F0817E
:102D1000E02DCD011995E091E804F091E904868158
:102D200097810E946206A091E804B091E904E091C5
:102D3000E604F091E7046285738518968D919C9165
:102D4000199740E050E00E945906A091E804B09124
:102D5000E904E091EA04F091EB046285738518962A
:102D60008D919C91199741E050E00E945906E091A5
:102D7000E804F091E904828593850E946206A0919F
:102D8000E804B091E904E091E604F091E704668973
:102D9000778954968D919C91559740E050E00E9420
:102DA00059061F910F91FF90EF90DF90CF90BF9049
:102DB000AF909F908F907F906F9008958F929F9289
:102DC000AF92BF92CF92DF92EF92FF920F931F9339
:102DD00080E00E9433290E9442257FE2872E74E022
:102DE000972EC4016FEF70E04FEF50E02FEF30E00F
:102DF0000E94F202C40140E050E06FE773E40E94D9
:102E00002803C090E604D090E7046AEF70E080E009
:102E100090E00E9402257B018C0180E290E00E94FC
:102E20001F28B82EA92EB70143E050E00E94750D6F
:102E3000F601B082A1820091E6041091E7046AEFE6
:102E400070E080E090E00E9402256B017C0180E24E
:102E500090E00E941F28B82EA92EB60143E050E052
:102E60000E94750DF801B2820E5F1F4FF801A1821A
:102E70000091E6041091E7046AEF70E080E090E0D2
:102E80000E9402256B017C0180E290E00E941F28D5
:102E9000B82EA92EB60143E050E00E94750DF8014E
:102EA000B4820C5F1F4FF801A1820091E6041091DB
:102EB000E7046AEF70E080E090E00E9402256B0179
:102EC0007C0180E290E00E941F28B82EA92EB60156
:102ED00043E050E00E94750DF801B6820A5F1F4F73
:102EE000F801A1820091E6041091E70480E290E0ED
:102EF0000E941F28F82EE92E6091E0047091E104F1
:102F0000882777FD8095982F0E94622C26E636E66A
:102F100046E65FE30E94AB2D0E942F2C9B01AC0183
:102F20008F2D9E2D6BE470E0A9010E94610EF801C7
:102F3000F086085F1F4FF801E1820091E6041091CE
:102F4000E70480E290E00E941F28F82EE92E6091AD
:102F5000E0047091E104882777FD8095982F0E9406
:102F6000622C2EEA37E441EE5DE30E94AB2D0E9415
:102F70002F2C9B01AC018F2D9E2D64E670E0A901E2
:102F80000E94610EF801F286065F1F4FF801E18290
:102F90000091E6041091E70486E290E00E941F2869
:102FA000F82EE92E0E94B30DF801F486045F1F4F3E
:102FB000F801E1820091E6041091E7048EE390E0CD
:102FC0000E941F28F82EE92E6AE674E00E941F0F67
:102FD000F801F686025F1F4FF801E1820091E604D6
:102FE0001091E7046CED75E080E090E00E9402250E
:102FF0006B017C0182E290E00E941F28B82EA92E6E
:10300000B701A6010E949F0EF801B08A005F1F4F12
:10301000F801A1820091E6041091E7046AE070E0F3
:1030200080E090E00E9402256B017C0180E290E04C
:103030000E941F28B82EA92E4091E0045091E1046F
:10304000B6010E94230EF801B28A0E5E1F4FF801EE
:10305000A1820091E6041091E70480E290E00E94D2
:103060001F28F82EE92E4091E2045091E3046FE00E
:1030700070E00E94E50DF801F48A0C5E1F4FF80124
:10308000E1820091E6041091E7048EE390E00E9453
:103090001F28F82EE92E64EF73E045EA54E021E0A2
:1030A00030E00E94A00FF801F68A0A5E1F4FF80177
:1030B000E1820091E6041091E70480E290E00E9432
:1030C0001F28F82EE92E4091E2045091E30464E1B8
:1030D00070E00E94E50DF801F08E085E1F4FF801C8
:1030E000E1820091E6041091E70482E290E00E9400
:1030F0001F28F82EE92E40E157E260E070E00E94C0
:103100009F0EF801F28E065E1F4FF801E1820091DA
:10311000E6041091E70460E570E080E090E02CE2C6
:1031200031E040E050E00E9424256B017C0180E208
:1031300090E00E941F28B82EA92E4091E0045091E3
:10314000E104B6010E94610EF801B48E045E1F4FC7
:10315000F801A1820091E6041091E70482E290E078
:103160000E941F28F82EE92E41E050E060E070E058
:103170000E949F0EF801F68E025E1F4FF801E18259
:103180000091E6041091E70482E290E00E941F287B
:10319000F82EE92E41E050E060E070E00E949F0EC2
:1031A000F801F0A2005E1F4FF801E1820091E604F1
:1031B0001091E70482E290E00E941F28F82EE92E89
:1031C00041E050E060E070E00E949F0EF801F2A242
:1031D0000E5D1F4FF801E1820091E6041091E704B3
:1031E00082E290E00E941F28F82EE92E41E050E094
:1031F00060E070E00E949F0EF801F4A20C5D1F4F8A
:10320000F801E1820091E6041091E70482E290E087
:103210000E941F28F82EE92E41E050E060E070E0A7
:103220000E949F0EF801F6A20A5D1F4FF801E1828D
:103230000091E6041091E70482E290E00E941F28CA
:10324000F82EE92E41E050E060E070E00E949F0E11
:10325000F801F0A6085D1F4FF801E1820091E60435
:103260001091E70482E290E00E941F28F82EE92ED8
:1032700041E050E060E070E00E949F0EF801F2A68D
:10328000065D1F4FF801E1820091E6041091E7040A
:1032900080E290E00E941F28F82EE92E4091E00481
:1032A0005091E10461E070E00E94230EF801F4A661
:1032B000045D1F4FF801E1820091E6041091E704DC
:1032C00080E290E00E941F28F82EE92E4091E00451
:1032D0005091E10461E070E00E94610EF801F6A6F1
:1032E000025D1F4FF801E1820091E6041091E704AE
:1032F00080E290E00E941F28F82EE92E6091E00401
:103300007091E104882777FD8095982F0E94622CA8
:1033100020E030E040E05FE30E94AB2D0E942F2CC4
:103320009B01AC018F2D9E2D62E070E0A9010E94EF
:10333000230EF801F0AA005D1F4FF801E182009111
:10334000E6041091E70480E290E00E941F28F82E26
:10335000E92E6091E0047091E104882777FD809563
:10336000982F0E94622C20E030E040E05FE30E9452
:10337000AB2D0E942F2C9B01AC018F2D9E2D62E066
:1033800070E0A9010E94610EF801F2AA0E5C1F4FC5
:10339000F801E1820091E6041091E70482E290E0F6
:1033A0000E941F28F82EE92E40E253E060E070E012
:1033B0000E949F0EF801F4AA0C5C1F4FF801E182F5
:1033C0008091E6049091E704B4014BE150E00E9443
:1033D000F30F8091E6049091E7046BE170E00E94A6
:1033E000E10EE091E604F091E704A4A5B5A5ED9106
:1033F000FC9111970190F081E02DCD011995E0919C
:10340000E604F091E704808591850E946206E091D0
:10341000E604F091E704828593850E946206E091BC
:10342000E604F091E704848595850E946206A091E8
:10343000E604B091E704E091E404F091E50466A1AC
:1034400077A156968D919C91579741E050E00E944C
:103450005906A091E604B091E704E091E804F091E8
:10346000E9046689778956968D919C91579742E039
:1034700050E00E945906A091E604B091E704E09163
:10348000EA04F091EB04608D718D56968D919C91BC
:10349000579743E050E00E9459061F910F91FF900B
:1034A000EF90DF90CF90BF90AF909F908F90089556
:1034B0008F929F92AF92BF92CF92DF92EF92FF9244
:1034C0000F931F93DF93CF93CDB7DEB76C970FB6F3
:1034D000F894DEBF0FBECDBFB4EF8B2EB3E09B2EB2
:1034E000C4016FEF70E040E050E020E030E00E9467
:1034F000F202C40140E050E06FE773E40E94280349
:10350000C090E404D090E5046AEF70E080E090E0C1
:103510000E9402257B018C0180E290E00E941F281E
:10352000B82EA92EB70143E050E00E94750DF601B8
:10353000B082A1820091E4041091E5046AEF70E08A
:1035400080E090E00E9402256B017C0180E290E027
:103550000E941F28B82EA92EB60143E050E00E9419
:10356000750DF801B2820E5F1F4FF801A182009124
:10357000E4041091E5046AEF70E080E090E00E94BE
:1035800002256B017C0180E290E00E941F28B82E8A
:10359000A92EB60143E050E00E94750DF801B482F7
:1035A0000C5F1F4FF801A1820091E4041091E50423
:1035B0006AEF70E080E090E00E9402256B017C01E0
:1035C00080E290E00E941F28B82EA92EB60143E0A9
:1035D00050E00E94750DF801B6820A5F1F4FF80196
:1035E000A1820091E4041091E50482E290E00E943F
:1035F0001F28F82EE92E48EB5BE060E070E00E94A7
:103600009F0EF801F086085F1F4FF801E182C0901D
:10361000E404D090E50486E290E00E941F28B92ED1
:10362000082F192FA8E0EA2EF12CEC0EFD1EC70181
:103630006EE473E00E94C425802F9B2DB7010E9489
:10364000530BC7010E94002687EB93E0F80191839A
:10365000808380E090E0A8E4B4E4868F978FA0A3F5
:10366000B1A380E293E0958F848FF60102878AE010
:1036700090E0C80ED91EF601B182C090E404D0904B
:10368000E5048EE190E00E941F28B92E082F192F23
:10369000FFE0EF2EF12CEC0EFD1EC7016CE573E090
:1036A0000E94C425802F9B2DB7010E94530BC70198
:1036B0000E94002687EC93E0F801918380838FE7D6
:1036C00090E0958F848FF60104878CE090E0C80E1F
:1036D000D91EF601B182C090E404D090E5048EE3D7
:1036E00090E00E941F28B92E082F192FE6E1EE2E38
:1036F000F12CEC0EFD1EC7016AE673E00E94C425A2
:10370000802F9B2DB7010E94530BC7010E940026FA
:103710008FEC93E0F80191838083C80186960E9424
:103720008A0BC801C0960E948A0BF80113AE12AE34
:10373000F60106878EE090E0C80ED91EF601B18230
:103740000091E4041091E50480E290E00E941F28BB
:10375000F82EE92E4091E2045091E30464E170E018
:103760000E94E50DF801F08A005F1F4FF801E18229
:103770000091E4041091E50480E290E00E941F288B
:10378000F82EE92E6091E0047091E104882777FD1E
:103790008095982F0E94622C2DEC3CEC4CE45FE36A
:1037A0000E94AB2D0E942F2C9B01AC018F2D9E2DD2
:1037B0006EE170E0A9010E94610EF801F28A0E5ECE
:1037C0001F4FF801E1820091E4041091E50480E2CA
:1037D00090E00E941F28F82EE92E6091E00470917D
:1037E000E104882777FD8095982F0E94622C2DECAC
:1037F0003CEC4CE45FE30E94AB2D0E942F2C9B011C
:10380000AC018F2D9E2D6EE170E0A9010E94230E68
:10381000F801F48A0C5E1F4FF801E1820091E40484
:103820001091E50480E290E00E941F28F82EE92E16
:103830006091E0047091E104882777FD8095982FCE
:103840000E94622C2DEC3CEC4CE45FE30E94AB2D1B
:103850000E942F2C9B01AC018F2D9E2D6EE170E0FC
:10386000A9010E94610EF801F68A0A5E1F4FF80155
:10387000E1820091E4041091E50480E290E00E946E
:103880001F28F82EE92E6091E0047091E10488274A
:1038900077FD8095982F0E94622C2DEC3CEC4CE437
:1038A0005FE30E94AB2D0E942F2C9B01AC018F2D5A
:1038B0009E2D6EE170E0A9010E94230EF801F08EAA
:1038C000085E1F4FF801E1820091E4041091E504C5
:1038D00080E290E00E941F28F82EE92E4091E0043B
:1038E0005091E1046EE170E00E94610EF801F28EE9
:1038F000065E1F4FF801E1820091E4041091E50497
:103900008EE390E00E941F28F82EE92E6FE274E00B
:103910000E941F0FF801F48E045E1F4FF801E18230
:103920000091E4041091E5046CED75E080E090E016
:103930000E9402256B017C0182E290E00E941F2818
:10394000B82EA92EB701A6010E949F0EF801B68ECF
:10395000025E1F4FF801A1820091E4041091E5047A
:103960006AE070E080E090E00E9402256B017C013B
:1039700080E290E00E941F28B82EA92E4091E0041A
:103980005091E104B6010E94230EF801B0A2005E3E
:103990001F4FF801A1820091E4041091E50480E238
:1039A00090E00E941F28F82EE92E4091E2045091E9
:1039B000E3046FE070E00E94E50DF801F2A20E5DF5
:1039C0001F4FF801E1820091E4041091E5047E01AB
:1039D0000894E11CF11CC70169E473E00E94C4254E
:1039E0008EE390E00E941F28D82EC92EB7010E94B6
:1039F000630FF801D4A20C5D1F4FF801C182C7010B
:103A00000E9400260091E4041091E50480E290E019
:103A10000E941F28F82EE92E4091E2045091E30401
:103A200064E170E00E94E50DF801F6A20A5D1F4F07
:103A3000F801E1820091E4041091E50482E290E053
:103A40000E941F28F82EE92E40E157E260E070E066
:103A50000E949F0EF801F0A6085D1F4FF801E18259
:103A60000091E4041091E50460E570E080E090E0EE
:103A70002CE231E040E050E00E9424256B017C0103
:103A800080E290E00E941F28B82EA92E4091E00409
:103A90005091E104B6010E94610EF801B2A6065DE4
:103AA0001F4FF801A1820091E4041091E50480E227
:103AB00090E00E941F28F82EE92E4091E0045091DA
:103AC000E10461E070E00E94230EF801F4A6045DB9
:103AD0001F4FF801E1820091E4041091E50480E2B7
:103AE00090E00E941F28F82EE92E4091E0045091AA
:103AF000E10461E070E00E94610EF801F6A6025D4B
:103B00001F4FF801E1820091E4041091E50480E286
:103B100090E00E941F28F82EE92E6091E004709139
:103B2000E104882777FD8095982F0E94622C20E081
:103B300030E040E05FE30E94AB2D0E942F2C9B0100
:103B4000AC018F2D9E2D62E070E0A9010E94230E32
:103B5000F801F0AA005D1F4FF801E1820091E40432
:103B60001091E50480E290E00E941F28F82EE92ED3
:103B70006091E0047091E104882777FD8095982F8B
:103B80000E94622C20E030E040E05FE30E94AB2D19
:103B90000E942F2C9B01AC018F2D9E2D62E070E0C6
:103BA000A9010E94610EF801F2AA0E5C1F4FF801F4
:103BB000E1820091E4041091E50482E290E00E9429
:103BC0001F28F82EE92E40E253E060E070E00E94EA
:103BD0009F0EF801F4AA0C5C1F4FF801E18280915E
:103BE000E4049091E504B4014BE150E00E94F30F2E
:103BF0008091E4049091E5046BE170E00E94E10E95
:103C0000E091E404F091E504A4A5B5A5ED91FC9143
:103C100011970190F081E02DCD011995E091E40418
:103C2000F091E504868197810E946206A091E404E8
:103C3000B091E504E091E604F091E70464857585B0
:103C400018968D919C91199741E050E00E94590679
:103C5000A091E404B091E504E091E804F091E90456
:103C60006285738518968D919C91199742E050E07A
:103C70000E945906A091E404B091E504E091EA04A1
:103C8000F091EB046485758518968D919C91199738
:103C900043E050E00E945906A091E404B091E5048D
:103CA000E091E604F091E704668577855C968D9156
:103CB0009C915D9741E050E00E945906A091E40478
:103CC000B091E504E091E804F091E904648575851C
:103CD0005C968D919C915D9742E050E00E94590660
:103CE000A091E404B091E504E091EA04F091EB04C2
:103CF000668577855C968D919C915D9743E050E059
:103D00000E945906A091E404B091E504E091EA0410
:103D1000F091EB046689778994968D919C919597A3
:103D200040E050E00E9459066C960FB6F894DEBF52
:103D30000FBECDBFCF91DF911F910F91FF90EF90FC
:103D4000DF90CF90BF90AF909F908F9008950F938A
:103D50001F9382E397E040E855E260E070E00E9444
:103D6000E92068EE73E080E090E00E9478288FE719
:103D700090E09093E1048093E0048FEF90E09093C3
:103D8000E3048093E2040E94581A0E94DE160E9407
:103D900093130E941510E091E404F091E50464A5EA
:103DA00075A5E091E604F091E70444A555A5E091DE
:103DB000E804F091E90424A535A5E091EA04F09126
:103DC000EB0404A515A58CEE94E00E94DF061F917C
:103DD0000F9108950E94D1280E94A71E0E943F0CB7
:103DE000FDCF1F920F920FB60F920BB60F921124B8
:103DF0002F933F934F938F939F93EF93FF938091D4
:103E0000C00082FD1DC04091C60020915205309136
:103E100053052F5F3F4F2F73307080915405909161
:103E200055052817390771F0E0915205F0915305B7
:103E3000EE5EFA4F4083309353052093520502C043
:103E40008091C600FF91EF919F918F914F913F918B
:103E50002F910F900BBE0F900FBE0F901F901895D3
:103E60001F920F920FB60F920BB60F9211242F9341
:103E70003F934F938F939F93EF93FF938091C8004D
:103E800082FD1DC04091CE002091DA053091DB0506
:103E90002F5F3F4F2F7330708091DC059091DD05CF
:103EA0002817390771F0E091DA05F091DB05E65645
:103EB000FA4F40833093DB052093DA0502C08091EE
:103EC000CE00FF91EF919F918F914F913F912F9154
:103ED0000F900BBE0F900FBE0F901F9018951F9262
:103EE0000F920FB60F920BB60F9211242F933F93A0
:103EF0004F938F939F93EF93FF938091D00082FD18
:103F00001DC04091D60020916206309163062F5F5C
:103F10003F4F2F733070809164069091650628178B
:103F2000390771F0E0916206F0916306EE5DF94F9A
:103F30004083309363062093620602C08091D600CE
:103F4000FF91EF919F918F914F913F912F910F9002
:103F50000BBE0F900FBE0F901F9018951F920F92DF
:103F60000FB60F920BB60F9211242F933F934F93DE
:103F70008F939F93EF93FF938091300182FD1DC03B
:103F8000409136012091EA063091EB062F5F3F4FBA
:103F90002F7330708091EC069091ED062817390749
:103FA00071F0E091EA06F091EB06E655F94F408397
:103FB0003093EB062093EA0602C080913601FF9110
:103FC000EF919F918F914F913F912F910F900BBE49
:103FD0000F900FBE0F901F9018951F920F920FB663
:103FE0000F920BB60F9211242F933F938F939F93B1
:103FF000EF93FF9320919605309197058091980556
:10400000909199052817390731F48091C1008F7D6F
:104010008093C10014C0E0919805F0919905EA5A87
:10402000FA4F2081809198059091990501968F73A0
:10403000907090939905809398052093C600FF9106
:10404000EF919F918F913F912F910F900BBE0F9009
:104050000FBE0F901F9018951F920F920FB60F92E0
:104060000BB60F9211242F933F938F939F93EF934F
:10407000FF9320911E0630911F068091200690919B
:1040800021062817390731F48091C9008F7D80936C
:10409000C90014C0E0912006F0912106E252FA4FC7
:1040A0002081809120069091210601968F73907057
:1040B00090932106809320062093CE00FF91EF91EC
:1040C0009F918F913F912F910F900BBE0F900FBE3C
:1040D0000F901F9018951F920F920FB60F920BB66C
:1040E0000F9211242F933F938F939F93EF93FF93FE
:1040F0002091A6063091A7068091A8069091A90666
:104100002817390731F48091D1008F7D8093D10039
:1041100014C0E091A806F091A906EA59F94F208150
:104120008091A8069091A90601968F739070909344
:10413000A9068093A8062093D600FF91EF919F9146
:104140008F913F912F910F900BBE0F900FBE0F904C
:104150001F9018951F920F920FB60F920BB60F92E9
:1041600011242F933F938F939F93EF93FF9320916D
:104170002E0730912F078091300790913107281733
:10418000390731F4809131018F7D8093310114C062
:10419000E0913007F0913107E251F94F2081809191
:1041A00030079091310701968F739070909331078B
:1041B0008093300720933601FF91EF919F918F916B
:1041C0003F912F910F900BBE0F900FBE0F901F903D
:1041D0001895AF92BF92DF92EF92FF920F931F93C9
:1041E000CF93DF93EC017A018B01DD24403081EE27
:1041F000580780E0680780E0780711F0DD24D39449
:1042000091E0A92EB12CEC89FD89DD2069F0C50172
:1042100008A002C0880F991F0A94E2F7808360E02B
:1042200079E08DE390E005C0108260E874E88EE1EB
:1042300090E0A80197010E94502E2150304040404C
:104240005040569547953795279580E1203038079F
:1042500020F0DD2011F0DD24D6CFE889F989308304
:10426000EA89FB89208319A2EE89FF89408121E038
:1042700030E0C9010C8C02C0880F991F0A94E2F744
:10428000482B4083EE89FF894081C9010D8C02C013
:10429000880F991F0A94E2F7482B4083EE89FF8923
:1042A0004081C9010E8C02C0880F991F0A94E2F761
:1042B000482B4083EE89FF8980810F8C02C0220F3A
:1042C000331F0A94E2F7209528232083DF91CF91B2
:1042D0001F910F91FF90EF90DF90BF90AF900895E6
:1042E000DC011C96ED91FC911D97E05CFF4F219144
:1042F000319180819181281B390B2F733070C90156
:104300000895DC011C96ED91FC911D97E05CFF4F38
:1043100020813181E054F040DF01AE5BBF4F8D91D1
:104320009C9111972817390719F42FEF3FEF07C019
:104330008D919C91E80FF91F8081282F30E0C901F1
:104340000895DC011C96ED91FC911D97E05CFF4FF8
:1043500020813181E054F040DF01AE5BBF4F8D9191
:104360009C9111972817390719F42FEF3FEF10C0D0
:104370008D919C911197E80FF91F20818D919C914F
:10438000119701968F73907011969C938E9330E0E5
:10439000C9010895DC0191968C919197882339F099
:1043A0005496ED91FC915597808186FFF9CF9196B7
:1043B0001C920895CF93DF93EC01EE85FF85E05CBE
:1043C000FF4F20813181E054F0402F5F3F4F2F732A
:1043D0003070DF01AE5BBF4F8D919C911197281714
:1043E0003907D1F3E05CFF4F80819181E054F040C8
:1043F000E80FF91F6083EE85FF85E05CFF4F318396
:104400002083EE89FF89208181E090E00F8C02C03B
:10441000880F991F0A94E2F7282B208381E089A353
:10442000EC89FD8980818064808381E090E0DF9168
:10443000CF9108951F93109235071092340728EEFC
:1044400033E040E050E02093360730933707409345
:1044500038075093390767EE73E070933307609322
:10446000320782E195E090933F0780933E0786E50F
:1044700095E0909341078093400785EC90E09093FE
:1044800043078093420784EC90E090934507809324
:10449000440780EC90E0909347078093460781ECB7
:1044A00090E0909349078093480782EC90E09093C6
:1044B0004B0780934A0786EC90E090934D078093DA
:1044C0004C0714E010934E07B3E0B0934F07A7E0FA
:1044D000A0935007F5E0F0935107E1E0E093520715
:1044E0001092570710925607209358073093590798
:1044F00040935A0750935B07709355076093540796
:104500008AE995E090936107809360078EED95E0CE
:1045100090936307809362078DEC90E0909365071A
:10452000809364078CEC90E0909367078093660714
:1045300088EC90E0909369078093680789EC90E09D
:1045400090936B0780936A078AEC90E090936D07D5
:1045500080936C078EEC90E090936F0780936E07CA
:1045600010937007B0937107A0937207F0937307CD
:10457000E0937407109279071092780720937A07D6
:1045800030937B0740937C0750937D0770937707A8
:104590006093760782E296E0909383078093820788
:1045A00086E696E0909385078093840785ED90E0FA
:1045B000909387078093860784ED90E09093890716
:1045C0008093880780ED90E090938B0780938A0713
:1045D00081ED90E090938D0780938C0782ED90E0C1
:1045E00090938F0780938E0786ED90E090939107CC
:1045F0008093900710939207B0939307A09394072A
:10460000F0939507E093960710929B0710929A07F4
:1046100020939C0730939D0740939E0750939F07DC
:1046200070939907609398078AEA96E09093A5079C
:104630008093A4078EEE96E09093A7078093A60739
:1046400085E391E09093A9078093A80784E391E024
:104650009093AB078093AA0780E391E09093AD0716
:104660008093AC0781E391E09093AF078093AE070E
:1046700082E391E09093B1078093B00786E391E0E5
:104680009093B3078093B2071093B407B093B50724
:10469000A093B607F093B707E093B8071F9108956A
:1046A000CF92DF92EF92FF920F931F93CF93DF93FE
:1046B0007C016B018A01C0E0D0E00FC0D6016D9192
:1046C0006D01D701ED91FC910190F081E02DC701C2
:1046D0001995C80FD91F015010400115110571F728
:1046E000CE01DF91CF911F910F91FF90EF90DF905E
:1046F000CF900895EF92FF920F931F938C01DC01EE
:10470000ED91FC910190F081E02D6DE019957C0117
:10471000D801ED91FC910190F081E02DC8016AE093
:1047200019959C012E0D3F1DC9011F910F91FF90FE
:10473000EF900895CF93DF93EC016115710519F4A3
:1047400020E030E00FC0DB010D900020E9F7119769
:10475000A61BB70BE881F9810280F381E02DAD0142
:1047600019959C01C901DF91CF9108954F925F92F5
:104770007F928F929F92AF92BF92CF92DF92EF92F1
:10478000FF920F931F93DF93CF93CDB7DEB7A1971F
:104790000FB6F894DEBF0FBECDBF2C01742ECB0137
:1047A000223008F42AE019A231E2C32ED12CCC0E1B
:1047B000DD1E822E9924AA24BB24672D752FA50106
:1047C00094010E94502E79018A01C801B701A50108
:1047D00094010E941E2E472D461B0894C108D10843
:1047E0004A3014F4405D01C0495CF6014083E11495
:1047F000F1040105110521F07E2C5F2DC801DDCFEC
:10480000C201B6010E949A23A1960FB6F894DEBFAA
:104810000FBECDBFCF91DF911F910F91FF90EF9011
:10482000DF90CF90BF90AF909F908F907F905F90E0
:104830004F900895DC012115310541F4ED91FC9173
:104840000190F081E02D642F199508950E94B62300
:104850000895CF92DF92EF92FF920F931F936C0116
:10486000E62E9A01FF2400E010E0B801A7010E94A3
:104870001A248C01C6010E947A23080F191FC8014F
:104880001F910F91FF90EF90DF90CF900895CF92FE
:10489000DF92EF92FF920F931F93CF93DF93EC0180
:1048A0006A017B012115310541F4E881F98101900C
:1048B000F081E02D642F19951FC02A303105D1F405
:1048C00077FF17C0E881F9810190F081E02D6DE25A
:1048D00019958C0144275527BA014C195D096E09B9
:1048E0007F09CE012AE00E94B6239801280F391FC4
:1048F00004C02AE00E94B6239C01C901DF91CF9138
:104900001F910F91FF90EF90DF90CF900895EF925D
:10491000FF920F931F937B019A010027F7FC0095EC
:10492000102FB801A7010E9447241F910F91FF90FB
:10493000EF900895CF92DF92EF92FF920F931F9323
:104940006C017B019A010027F7FC0095102FB8013C
:10495000A7010E9447248C01C6010E947A23080FF8
:10496000191FC8011F910F91FF90EF90DF90CF901A
:1049700008950E949A230895EF92FF920F931F9338
:104980007C010E949A238C01C7010E947A23080FA0
:10499000191FC8011F910F91FF90EF900895AF92DA
:1049A000BF92CF92DF92EF92FF920F931F93CF931C
:1049B000DF935C016B01EE24FF24C0E0D0E010C067
:1049C000D501ED91FC9100811181C601BE010E94CB
:1049D0004A25682FC501F8011995E80EF91E2196A0
:1049E000F60184819581C817D90750F3C701DF917B
:1049F000CF911F910F91FF90EF90DF90CF90BF90DC
:104A0000AF900895EF92FF920F931F937B018C015B
:104A1000611571058105910529F420E030E040E041
:104A200050E00BC00E949B01A80197010E94722ECA
:104A3000AC01CB01DA019C01AD01B901CA011F91A2
:104A40000F91FF90EF900895EF92FF920F931F93B5
:104A50007B018C01621773078407950764F4261B9A
:104A6000370B480B590BCA01B9010E940225E60E0B
:104A7000F71E081F191FB701C8011F910F91FF9062
:104A8000EF900895009729F0BC0180E090E00E942B
:104A9000A0010895FC01848195816817790748F485
:104AA0000190F081E02D309721F0E60FF71F808113
:104AB000089580E008950F931F93CF93DF93EC0147
:104AC0008B016F5F7F4F888199810E943B27009700
:104AD00011F480E005C0998388831B830A8381E0F9
:104AE000DF91CF911F910F910895CF93DF93EC0148
:104AF00088819981892B29F08A819B818617970764
:104B000060F4CE010E945B25882341F08C819D8159
:104B1000892B19F4E881F981108281E0DF91CF912E
:104B20000895CF93DF93EC0188819981009711F06C
:104B30000E94A326198218821D821C821B821A825F
:104B4000DF91CF910895EF92FF920F931F93CF9330
:104B5000DF93EC017B018A01BA010E94752588234D
:104B600021F4CE010E94912507C01D830C8388810A
:104B70009981B7010E94B201CE01DF91CF911F91BF
:104B80000F91FF90EF900895CF93DF93EC0119827E
:104B900018821B821A821D821C821E826115710579
:104BA00051F0DB010D900020E9F71197A61BB70B20
:104BB000AD010E94A325DF91CF910895CF93DF939C
:104BC000EC01FB018617970761F060817181611527
:104BD000710529F0448155810E94A32502C00E94DD
:104BE0009125CE01DF91CF910895FC0111821082B1
:104BF000138212821582148216820E94DE25089585
:104C0000FC01808191810E94A32608950F931F9338
:104C1000CF93DF93BC018230910510F462E070E025
:104C2000E091C507F091C607A0E0B0E040E050E099
:104C300024C08081918186179707D0F08617970747
:104C400071F482819381109729F013969C938E932F
:104C500012972CC09093C6078093C50727C04115B3
:104C6000510519F08417950718F4EF018D01AC0177
:104C7000DF01828193819C01F9013097D1F64115C2
:104C80005105F9F0CA01861B970B8430910580F419
:104C90008A819B810115110521F0F801938382839C
:104CA00004C09093C6078093C507FE01329645C0A5
:104CB000FE01E80FF91F619371930297998388832E
:104CC0003CC08091C3079091C407892B41F4809127
:104CD0008603909187039093C4078093C307409104
:104CE0008803509189034115510541F44DB75EB7D2
:104CF0008091840390918503481B590B2091C30731
:104D00003091C40724173507B0F4CA01821B930BF6
:104D10008617970780F0AB014E5F5F4F84179507AA
:104D200050F0420F531F5093C4074093C307F9013B
:104D30006193719302C0E0E0F0E0CF01DF91CF9189
:104D40001F910F910895CF93DF939C01009709F471
:104D50008FC0EC0122971B821A826091C507709167
:104D6000C6076115710581F488819981820F931FAF
:104D70002091C3073091C4072817390739F5D0931C
:104D8000C407C093C30774C0DB0140E050E0AC1718
:104D9000BD0708F1BB83AA83FE0121913191E20F87
:104DA000F31FAE17BF0779F48D919C911197280FCF
:104DB000391F2E5F3F4F3983288312968D919C9126
:104DC00013979B838A834115510571F4D093C607CD
:104DD000C093C5074DC012968D919C911397AD015C
:104DE000009711F0DC01D3CFDA011396DC93CE9358
:104DF0001297FA0121913191E20FF31FCE17DF07CD
:104E000069F488819981280F391F2E5F3F4FFA017D
:104E1000318320838A819B8193838283E0E0F0E069
:104E2000DB0112968D919C911397009719F0BC01AC
:104E3000FD01F6CFAB014E5F5F4FDB018D919C9181
:104E4000840F951F2091C3073091C4072817390795
:104E500079F4309729F41092C6071092C50702C062
:104E600013821282425050405093C4074093C307AC
:104E7000DF91CF9108956F927F928F929F92AF9220
:104E8000BF92CF92DF92EF92FF920F931F93CF9337
:104E9000DF938C01009729F4CB010E9406268C0138
:104EA000BBC08EEFE82E8FEFF82EE00EF11E48010A
:104EB000860E971E8E149F0408F4ACC0D7014D9146
:104EC0005C91119746175707B8F04530510508F423
:104ED000A3C0CA0104978617970708F49DC04250E3
:104EE0005040461B570BF401419351936D937C93B3
:104EF000CF010E94A32690C05B01A41AB50A380115
:104F0000640E751EA091C507B091C607CC24DD24A0
:104F1000E0E0F0E047C0A615B705A9F5CD91DC911A
:104F20001197CE0102968A159B0568F1CE018A1968
:104F30009B09029612962C91129713963C91059715
:104F400058F0F40122833383CA19DB09D183C0836B
:104F5000D7016D937C9309C04E5F5F4F4C0F5D1F6F
:104F6000F70151834083C901FC01C114D10431F020
:104F7000D6011396FC93EE9312974EC0F093C6079A
:104F8000E093C50749C08D919C911197E817F907E7
:104F900008F4FC016D0112968C91129713969C9166
:104FA0009C01D901109709F0B6CF8091C307909169
:104FB000C40786159705E9F4E617F707D0F42091A2
:104FC0008803309189032115310541F42DB73EB78F
:104FD0008091840390918503281B390B82169306D8
:104FE000C8F49092C4078092C307F701718360836D
:104FF00013C0CB010E940626EC01009759F0D7019F
:105000004D915C91B8010E94A901C8010E94A3269C
:105010008E0102C000E010E0C801DF91CF911F9126
:105020000F91FF90EF90DF90CF90BF90AF909F9047
:105030008F907F906F9008950E94062608950E9499
:10504000062608951F920F920FB60F9211242F93E8
:105050003F938F939F93AF93BF938091BE0790919F
:10506000BF07A091C007B091C1073091C207019658
:10507000A11DB11D232F2D5F2D3720F02D57019637
:10508000A11DB11D2093C2078093BE079093BF0757
:10509000A093C007B093C1078091BA079091BB0756
:1050A000A091BC07B091BD070196A11DB11D8093D1
:1050B000BA079093BB07A093BC07B093BD07BF91FD
:1050C000AF919F918F913F912F910F900FBE0F90B5
:1050D0001F9018958FB7F8942091BE073091BF07A5
:1050E0004091C0075091C1078FBFB901CA0108950F
:1050F0009B01AC017FB7F8948091BA079091BB07F0
:10510000A091BC07B091BD0766B5A89B05C06F3FD5
:1051100019F00196A11DB11D7FBFBA2FA92F982F9D
:105120008827860F911DA11DB11D62E0880F991F70
:10513000AA1FBB1F6A95D1F7BC012DC0FFB7F89419
:105140008091BA079091BB07A091BC07B091BD07B1
:10515000E6B5A89B05C0EF3F19F00196A11DB11D52
:10516000FFBFBA2FA92F982F88278E0F911DA11D41
:10517000B11DE2E0880F991FAA1FBB1FEA95D1F766
:10518000861B970B885E9340C8F221503040404008
:10519000504068517C4F211531054105510571F68C
:1051A0000895789484B5826084BD84B5816084BD9F
:1051B00085B5826085BD85B5816085BDEEE6F0E090
:1051C000808181608083E1E8F0E0108280818260EC
:1051D0008083808181608083E0E8F0E0808181606D
:1051E0008083E1EBF0E0808184608083E0EBF0E09D
:1051F000808181608083E1E9F0E08081826080834A
:10520000808181608083E0E9F0E08081816080833B
:10521000E1EAF0E080818260808380818160808328
:10522000E0EAF0E0808181608083E1E2F1E080816A
:1052300082608083808181608083E0E2F1E0808110
:1052400081608083EAE7F0E08081846080838081F0
:105250008260808380818160808380818068808398
:105260001092C1000895382F863308F036532091EC
:105270007B00832F86958695869590E0817090704F
:1052800043E0880F991F4A95E1F7277F282B209349
:105290007B00377080918A038295880F880F807C0D
:1052A000832B80937C0080917A00806480937A00C5
:1052B00080917A0086FDFCCF2091780040917900A2
:1052C000942F80E030E0282B392BC90108951F93DB
:1052D000CF93DF93182FEB0161E00E94472A2097BC
:1052E00009F4CAC0CF3FD10509F4C9C0E12FF0E0ED
:1052F000EA51FE4F8491893009F466C08A30B0F4D7
:105300008430F1F1853040F4823059F1833070F50A
:10531000813009F0AEC020C0873009F443C0883026
:1053200008F048C0863009F0A4C034C08D3009F4BC
:1053300078C08E3038F48B3009F45AC08C3008F0C5
:1053400066C04CC0803109F480C0813109F487C047
:105350008F3009F08EC06FC084B5806884BDC7BD32
:1053600092C084B5806284BDC8BD8DC0809180002C
:10537000806880938000D0938900C093880083C0A8
:1053800080918000806280938000D0938B00C093D6
:105390008A0079C08091B00080688093B000C0938B
:1053A000B30071C08091B00080628093B000C09360
:1053B000B40069C080919000806880939000D09381
:1053C0009900C09398005FC08091900080628093A4
:1053D0009000D0939B00C0939A0055C0809190009C
:1053E000886080939000D0939D00C0939C004BC038
:1053F0008091A00080688093A0008091A0008F7BA6
:105400008093A000D093A900C093A8003CC08091D5
:10541000A00080628093A000D093AB00C093AA004C
:1054200032C08091A00088608093A000D093AD002E
:10543000C093AC0028C08091200180688093200137
:10544000D0932901C09328011EC080912001806261
:1054500080932001D0932B01C0932A0114C0809126
:105460002001886080932001D0932D01C0932C01EE
:105470000AC0C038D1051CF4812F60E002C0812F22
:1054800061E00E94FA2ADF91CF911F910895CF9396
:10549000DF93482F50E0CA0180569E4FFC013491A3
:1054A000465A5E4FFA018491882369F190E0880F93
:1054B000991FFC01E45FFE4FA591B491FC01EA5DE8
:1054C000FE4FC591D491662351F42FB7F8948C9177
:1054D000932F909589238C93888189230BC0623008
:1054E00061F42FB7F8948C91932F909589238C9326
:1054F0008881832B88832FBF06C09FB7F8948C9137
:10550000832B8C939FBFDF91CF910895893009F44D
:1055100049C08A30A0F4843051F1853040F48230A3
:1055200079F1833000F5813009F063C026C08730FF
:1055300079F1883098F5863009F05BC025C08D3050
:1055400009F442C08E3028F48B30B1F18C30C0F5B4
:105550002DC0803109F442C0813109F445C08F303B
:1055600009F047C037C0809180008F7703C08091D9
:1055700080008F7D80938000089584B58F7702C06E
:1055800084B58F7D84BD08958091B0008F7703C06E
:105590008091B0008F7D8093B0000895809190003D
:1055A0008F7707C0809190008F7D03C0809190001D
:1055B000877F8093900008958091A0008F7707C027
:1055C0008091A0008F7D03C08091A000877F809391
:1055D000A0000895809120018F7703C08091200161
:1055E0008F7D80932001089580912001877F809393
:1055F00020010895FF920F931F93F62E482F50E03D
:10560000CA018A519E4FFC012491CA0180569E4FC7
:10561000FC011491465A5E4FFA0104910023C9F02F
:10562000222319F0822F0E94862AE02FF0E0EE0F4D
:10563000FF1FEA5DFE4FA591B4919FB7F894FF203C
:1056400021F48C911095812302C08C91812B8C9335
:105650009FBF1F910F91FF9008955058BB27AA2715
:105660000ED0CBC1BCD130F0C1D120F031F49F3F7E
:1056700011F41EF48CC10EF4E095E7FB82C1E92F12
:10568000CDD180F3BA17620773078407950718F026
:1056900071F49EF5E5C10EF4E0950B2EBA2FA02D06
:1056A0000B01B90190010C01CA01A0011124FF27CF
:1056B000591B99F0593F50F4503E68F11A16F040CA
:1056C000A22F232F342F4427585FF3CF46953795C9
:1056D0002795A795F0405395C9F77EF41F16BA0B8E
:1056E000620B730B840BBAF09150A1F0FF0FBB1F3C
:1056F000661F771F881FC2F70EC0BA0F621F731F85
:10570000841F48F4879577956795B795F7959E3FE1
:1057100008F0B3CF9395880F08F09927EE0F97956F
:10572000879508950AD108F481E008950CD065C1E9
:105730005DD140F054D130F021F45F3F19F021C128
:1057400051118FC124C16AD198F39923C9F355230C
:10575000B1F3951B550BBB27AA2762177307840764
:1057600038F09F5F5F4F220F331F441FAA1FA9F31A
:1057700033D00E2E3AF0E0E830D091505040E6950C
:10578000001CCAF729D0FE2F27D0660F771F881F6D
:10579000BB1F261737074807AB07B0E809F0BB0B5C
:1057A000802DBF01FF2793585F4F2AF09E3F510580
:1057B00068F0E7C056C15F3FECF3983EDCF3869596
:1057C00077956795B795F7959F5FC9F7880F911DF6
:1057D0009695879597F90895E1E0660F771F881FE2
:1057E000BB1F621773078407BA0720F0621B730B95
:1057F000840BBA0BEE1F88F7E095089519F40EF0AC
:10580000C0C02EC1C4C012D1C8F39638C0F707F883
:105810000F92E8942BE33AEA48EB5FE7AAD10F92A4
:105820000F920F924DB75EB70F9262D1E4EEF0E0A7
:10583000B1D04F915F91EF91FF91E595EE1FFF1F62
:1058400049F0FE57E0684427EE0F441FFA95E1F750
:105850004195550B19D10F9007FE0DC1089504D045
:105860006894B111FEC00895E1D088F09F5790F080
:10587000B92F9927B751A0F0D1F0660F771F881F75
:10588000991F1AF0BA95C9F712C0B13081F0E8D06B
:10589000B1E00895E5C0672F782F8827B85F39F009
:1058A000B93FCCF3869577956795B395D9F73EF4D4
:1058B00090958095709561957F4F8F4F9F4F08957C
:1058C000E89409C097FB3EF490958095709561959A
:1058D0007F4F8F4F9F4F9923A9F0F92F96E9BB2750
:1058E0009395F695879577956795B795F111F8CFCC
:1058F000FAF4BB0F11F460FF1BC06F5F7F4F8F4F37
:105900009F4F16C0882311F096E911C0772321F02C
:105910009EE8872F762F05C0662371F096E8862FC4
:1059200070E060E02AF09A95660F771F881FDAF71B
:10593000880F9695879597F90895990F0008550F48
:10594000AA0BE0E8FEEF16161706E807F907C0F005
:1059500012161306E407F50798F0621B730B840B0D
:10596000950B39F40A2661F0232B242B252B21F4E7
:1059700008950A2609F4A140A6958FEF811D811D87
:10598000089597F99F6780E870E060E008959FEFC1
:1059900080EC0895DF93CF931F930F93FF92EF92C4
:1059A000DF927B018C01689405C0DA2EEF01DFD015
:1059B000FE01E894A5912591359145915591AEF35D
:1059C000EF015DDEFE019701A801DA9479F7DF901F
:1059D000EF90FF900F911F91CF91DF9108950024D8
:1059E0000A941616170618060906089500240A9444
:1059F00012161306140605060895092E0394000CCA
:105A000011F4882352F0BB0F40F4BF2B11F460FF58
:105A100004C06F5F7F4F8F4F9F4F089557FD905881
:105A2000440F551F59F05F3F71F04795880F97FB62
:105A3000991F61F09F3F79F087950895121613061C
:105A40001406551FF2CF4695F1DF08C0161617064B
:105A50001806991FF1CF8695710561050894089580
:105A6000E894BB2766277727CB0197F9089565DF70
:105A700008F48FEF08959B01AC0160E070E080E8CE
:105A80009FE354CE7ECFCAC0D1DFE8F39923D9F388
:105A9000940F511DBBF39150504094F059F088235E
:105AA00032F0660F771F881F91505040C1F79E3F1C
:105AB000510544F7880F911D9695879597F908959C
:105AC0005F3FACF0983E9CF0BB2786957795679535
:105AD000B79508F4B1609395C1F7BB0F58F711F46F
